{
  "contractName": "Cat",
  "abi": [
    {
      "inputs": [],
      "stateMutability": "nonpayable",
      "type": "constructor"
    },
    {
      "anonymous": false,
      "inputs": [
        {
          "indexed": true,
          "internalType": "address",
          "name": "owner",
          "type": "address"
        },
        {
          "indexed": true,
          "internalType": "address",
          "name": "approved",
          "type": "address"
        },
        {
          "indexed": true,
          "internalType": "uint256",
          "name": "tokenId",
          "type": "uint256"
        }
      ],
      "name": "Approval",
      "type": "event"
    },
    {
      "anonymous": false,
      "inputs": [
        {
          "indexed": true,
          "internalType": "address",
          "name": "owner",
          "type": "address"
        },
        {
          "indexed": true,
          "internalType": "address",
          "name": "operator",
          "type": "address"
        },
        {
          "indexed": false,
          "internalType": "bool",
          "name": "approved",
          "type": "bool"
        }
      ],
      "name": "ApprovalForAll",
      "type": "event"
    },
    {
      "anonymous": false,
      "inputs": [
        {
          "indexed": true,
          "internalType": "address",
          "name": "previousOwner",
          "type": "address"
        },
        {
          "indexed": true,
          "internalType": "address",
          "name": "newOwner",
          "type": "address"
        }
      ],
      "name": "OwnershipTransferred",
      "type": "event"
    },
    {
      "anonymous": false,
      "inputs": [
        {
          "indexed": true,
          "internalType": "address",
          "name": "from",
          "type": "address"
        },
        {
          "indexed": true,
          "internalType": "address",
          "name": "to",
          "type": "address"
        },
        {
          "indexed": true,
          "internalType": "uint256",
          "name": "tokenId",
          "type": "uint256"
        }
      ],
      "name": "Transfer",
      "type": "event"
    },
    {
      "inputs": [
        {
          "internalType": "address",
          "name": "to",
          "type": "address"
        },
        {
          "internalType": "uint256",
          "name": "tokenId",
          "type": "uint256"
        }
      ],
      "name": "approve",
      "outputs": [],
      "stateMutability": "nonpayable",
      "type": "function"
    },
    {
      "inputs": [
        {
          "internalType": "address",
          "name": "owner",
          "type": "address"
        }
      ],
      "name": "balanceOf",
      "outputs": [
        {
          "internalType": "uint256",
          "name": "",
          "type": "uint256"
        }
      ],
      "stateMutability": "view",
      "type": "function"
    },
    {
      "inputs": [
        {
          "internalType": "uint256",
          "name": "tokenId",
          "type": "uint256"
        }
      ],
      "name": "getApproved",
      "outputs": [
        {
          "internalType": "address",
          "name": "",
          "type": "address"
        }
      ],
      "stateMutability": "view",
      "type": "function"
    },
    {
      "inputs": [
        {
          "internalType": "address",
          "name": "owner",
          "type": "address"
        },
        {
          "internalType": "address",
          "name": "operator",
          "type": "address"
        }
      ],
      "name": "isApprovedForAll",
      "outputs": [
        {
          "internalType": "bool",
          "name": "",
          "type": "bool"
        }
      ],
      "stateMutability": "view",
      "type": "function"
    },
    {
      "inputs": [],
      "name": "name",
      "outputs": [
        {
          "internalType": "string",
          "name": "",
          "type": "string"
        }
      ],
      "stateMutability": "view",
      "type": "function"
    },
    {
      "inputs": [],
      "name": "owner",
      "outputs": [
        {
          "internalType": "address",
          "name": "",
          "type": "address"
        }
      ],
      "stateMutability": "view",
      "type": "function"
    },
    {
      "inputs": [
        {
          "internalType": "uint256",
          "name": "tokenId",
          "type": "uint256"
        }
      ],
      "name": "ownerOf",
      "outputs": [
        {
          "internalType": "address",
          "name": "",
          "type": "address"
        }
      ],
      "stateMutability": "view",
      "type": "function"
    },
    {
      "inputs": [],
      "name": "renounceOwnership",
      "outputs": [],
      "stateMutability": "nonpayable",
      "type": "function"
    },
    {
      "inputs": [
        {
          "internalType": "address",
          "name": "from",
          "type": "address"
        },
        {
          "internalType": "address",
          "name": "to",
          "type": "address"
        },
        {
          "internalType": "uint256",
          "name": "tokenId",
          "type": "uint256"
        }
      ],
      "name": "safeTransferFrom",
      "outputs": [],
      "stateMutability": "nonpayable",
      "type": "function"
    },
    {
      "inputs": [
        {
          "internalType": "address",
          "name": "from",
          "type": "address"
        },
        {
          "internalType": "address",
          "name": "to",
          "type": "address"
        },
        {
          "internalType": "uint256",
          "name": "tokenId",
          "type": "uint256"
        },
        {
          "internalType": "bytes",
          "name": "_data",
          "type": "bytes"
        }
      ],
      "name": "safeTransferFrom",
      "outputs": [],
      "stateMutability": "nonpayable",
      "type": "function"
    },
    {
      "inputs": [
        {
          "internalType": "address",
          "name": "operator",
          "type": "address"
        },
        {
          "internalType": "bool",
          "name": "approved",
          "type": "bool"
        }
      ],
      "name": "setApprovalForAll",
      "outputs": [],
      "stateMutability": "nonpayable",
      "type": "function"
    },
    {
      "inputs": [],
      "name": "str",
      "outputs": [
        {
          "internalType": "string",
          "name": "",
          "type": "string"
        }
      ],
      "stateMutability": "view",
      "type": "function"
    },
    {
      "inputs": [
        {
          "internalType": "bytes4",
          "name": "interfaceId",
          "type": "bytes4"
        }
      ],
      "name": "supportsInterface",
      "outputs": [
        {
          "internalType": "bool",
          "name": "",
          "type": "bool"
        }
      ],
      "stateMutability": "view",
      "type": "function"
    },
    {
      "inputs": [],
      "name": "symbol",
      "outputs": [
        {
          "internalType": "string",
          "name": "",
          "type": "string"
        }
      ],
      "stateMutability": "view",
      "type": "function"
    },
    {
      "inputs": [
        {
          "internalType": "uint256",
          "name": "tokenId",
          "type": "uint256"
        }
      ],
      "name": "tokenURI",
      "outputs": [
        {
          "internalType": "string",
          "name": "",
          "type": "string"
        }
      ],
      "stateMutability": "view",
      "type": "function"
    },
    {
      "inputs": [
        {
          "internalType": "address",
          "name": "from",
          "type": "address"
        },
        {
          "internalType": "address",
          "name": "to",
          "type": "address"
        },
        {
          "internalType": "uint256",
          "name": "tokenId",
          "type": "uint256"
        }
      ],
      "name": "transferFrom",
      "outputs": [],
      "stateMutability": "nonpayable",
      "type": "function"
    },
    {
      "inputs": [
        {
          "internalType": "address",
          "name": "newOwner",
          "type": "address"
        }
      ],
      "name": "transferOwnership",
      "outputs": [],
      "stateMutability": "nonpayable",
      "type": "function"
    },
    {
      "inputs": [],
      "name": "purchase",
      "outputs": [],
      "stateMutability": "payable",
      "type": "function"
    }
  ],
  "bytecode": "0x60806040523480156200001157600080fd5b506040518060400160405280601081526020017f5832303234333439395f424354414241000000000000000000000000000000008152506040518060400160405280600381526020017f4341540000000000000000000000000000000000000000000000000000000000815250816000908051906020019062000096929190620001a6565b508060019080519060200190620000af929190620001a6565b505050620000d2620000c6620000d860201b60201c565b620000e060201b60201c565b620002bb565b600033905090565b6000600760009054906101000a900473ffffffffffffffffffffffffffffffffffffffff16905081600760006101000a81548173ffffffffffffffffffffffffffffffffffffffff021916908373ffffffffffffffffffffffffffffffffffffffff1602179055508173ffffffffffffffffffffffffffffffffffffffff168173ffffffffffffffffffffffffffffffffffffffff167f8be0079c531659141344cd1fd0a4f28419497f9722a3daafe3b4186f6b6457e060405160405180910390a35050565b828054620001b49062000256565b90600052602060002090601f016020900481019282620001d8576000855562000224565b82601f10620001f357805160ff191683800117855562000224565b8280016001018555821562000224579182015b828111156200022357825182559160200191906001019062000206565b5b50905062000233919062000237565b5090565b5b808211156200025257600081600090555060010162000238565b5090565b600060028204905060018216806200026f57607f821691505b602082108114156200028657620002856200028c565b5b50919050565b7f4e487b7100000000000000000000000000000000000000000000000000000000600052602260045260246000fd5b612dfa80620002cb6000396000f3fe6080604052600436106101095760003560e01c8063715018a611610095578063b88d4fde11610064578063b88d4fde14610348578063c15bae8414610371578063c87b56dd1461039c578063e985e9c5146103d9578063f2fde38b1461041657610109565b8063715018a6146102b25780638da5cb5b146102c957806395d89b41146102f4578063a22cb4651461031f57610109565b806323b872dd116100dc57806323b872dd146101dc57806342842e0e146102055780636352211e1461022e57806364edfbf01461026b57806370a082311461027557610109565b806301ffc9a71461010e57806306fdde031461014b578063081812fc14610176578063095ea7b3146101b3575b600080fd5b34801561011a57600080fd5b5061013560048036038101906101309190611f3b565b61043f565b604051610142919061273f565b60405180910390f35b34801561015757600080fd5b50610160610521565b60405161016d919061275a565b60405180910390f35b34801561018257600080fd5b5061019d60048036038101906101989190611f8d565b6105b3565b6040516101aa91906126d8565b60405180910390f35b3480156101bf57600080fd5b506101da60048036038101906101d59190611eff565b610638565b005b3480156101e857600080fd5b5061020360048036038101906101fe9190611df9565b610750565b005b34801561021157600080fd5b5061022c60048036038101906102279190611df9565b6107b0565b005b34801561023a57600080fd5b5061025560048036038101906102509190611f8d565b6107d0565b60405161026291906126d8565b60405180910390f35b610273610882565b005b34801561028157600080fd5b5061029c60048036038101906102979190611d94565b610926565b6040516102a9919061299c565b60405180910390f35b3480156102be57600080fd5b506102c76109de565b005b3480156102d557600080fd5b506102de610a66565b6040516102eb91906126d8565b60405180910390f35b34801561030057600080fd5b50610309610a90565b604051610316919061275a565b60405180910390f35b34801561032b57600080fd5b5061034660048036038101906103419190611ec3565b610b22565b005b34801561035457600080fd5b5061036f600480360381019061036a9190611e48565b610b38565b005b34801561037d57600080fd5b50610386610b9a565b604051610393919061275a565b60405180910390f35b3480156103a857600080fd5b506103c360048036038101906103be9190611f8d565b610c28565b6040516103d0919061275a565b60405180910390f35b3480156103e557600080fd5b5061040060048036038101906103fb9190611dbd565b610d7a565b60405161040d919061273f565b60405180910390f35b34801561042257600080fd5b5061043d60048036038101906104389190611d94565b610e0e565b005b60007f80ac58cd000000000000000000000000000000000000000000000000000000007bffffffffffffffffffffffffffffffffffffffffffffffffffffffff1916827bffffffffffffffffffffffffffffffffffffffffffffffffffffffff1916148061050a57507f5b5e139f000000000000000000000000000000000000000000000000000000007bffffffffffffffffffffffffffffffffffffffffffffffffffffffff1916827bffffffffffffffffffffffffffffffffffffffffffffffffffffffff1916145b8061051a575061051982610f06565b5b9050919050565b60606000805461053090612bcc565b80601f016020809104026020016040519081016040528092919081815260200182805461055c90612bcc565b80156105a95780601f1061057e576101008083540402835291602001916105a9565b820191906000526020600020905b81548152906001019060200180831161058c57829003601f168201915b5050505050905090565b60006105be82610f70565b6105fd576040517f08c379a00000000000000000000000000000000000000000000000000000000081526004016105f4906128fc565b60405180910390fd5b6004600083815260200190815260200160002060009054906101000a900473ffffffffffffffffffffffffffffffffffffffff169050919050565b6000610643826107d0565b90508073ffffffffffffffffffffffffffffffffffffffff168373ffffffffffffffffffffffffffffffffffffffff1614156106b4576040517f08c379a00000000000000000000000000000000000000000000000000000000081526004016106ab9061295c565b60405180910390fd5b8073ffffffffffffffffffffffffffffffffffffffff166106d3610fdc565b73ffffffffffffffffffffffffffffffffffffffff1614806107025750610701816106fc610fdc565b610d7a565b5b610741576040517f08c379a00000000000000000000000000000000000000000000000000000000081526004016107389061285c565b60405180910390fd5b61074b8383610fe4565b505050565b61076161075b610fdc565b8261109d565b6107a0576040517f08c379a00000000000000000000000000000000000000000000000000000000081526004016107979061297c565b60405180910390fd5b6107ab83838361117b565b505050565b6107cb83838360405180602001604052806000815250610b38565b505050565b6000806002600084815260200190815260200160002060009054906101000a900473ffffffffffffffffffffffffffffffffffffffff169050600073ffffffffffffffffffffffffffffffffffffffff168173ffffffffffffffffffffffffffffffffffffffff161415610879576040517f08c379a00000000000000000000000000000000000000000000000000000000081526004016108709061289c565b60405180910390fd5b80915050919050565b600066038d7ea4c6800090508034101561089b57600080fd5b6108a560086113e2565b60026108b160086113f8565b11156108bc57600080fd5b60006108c860086113f8565b90506108d2610a66565b73ffffffffffffffffffffffffffffffffffffffff166108fc349081150290604051600060405180830381858888f19350505050158015610917573d6000803e3d6000fd5b506109223382611406565b5050565b60008073ffffffffffffffffffffffffffffffffffffffff168273ffffffffffffffffffffffffffffffffffffffff161415610997576040517f08c379a000000000000000000000000000000000000000000000000000000000815260040161098e9061287c565b60405180910390fd5b600360008373ffffffffffffffffffffffffffffffffffffffff1673ffffffffffffffffffffffffffffffffffffffff168152602001908152602001600020549050919050565b6109e6610fdc565b73ffffffffffffffffffffffffffffffffffffffff16610a04610a66565b73ffffffffffffffffffffffffffffffffffffffff1614610a5a576040517f08c379a0000000000000000000000000000000000000000000000000000000008152600401610a519061291c565b60405180910390fd5b610a6460006115e0565b565b6000600760009054906101000a900473ffffffffffffffffffffffffffffffffffffffff16905090565b606060018054610a9f90612bcc565b80601f0160208091040260200160405190810160405280929190818152602001828054610acb90612bcc565b8015610b185780601f10610aed57610100808354040283529160200191610b18565b820191906000526020600020905b815481529060010190602001808311610afb57829003601f168201915b5050505050905090565b610b34610b2d610fdc565b83836116a6565b5050565b610b49610b43610fdc565b8361109d565b610b88576040517f08c379a0000000000000000000000000000000000000000000000000000000008152600401610b7f9061297c565b60405180910390fd5b610b9484848484611813565b50505050565b60098054610ba790612bcc565b80601f0160208091040260200160405190810160405280929190818152602001828054610bd390612bcc565b8015610c205780601f10610bf557610100808354040283529160200191610c20565b820191906000526020600020905b815481529060010190602001808311610c0357829003601f168201915b505050505081565b6060610c3382610f70565b610c72576040517f08c379a0000000000000000000000000000000000000000000000000000000008152600401610c69906128dc565b60405180910390fd5b6000600660008481526020019081526020016000208054610c9290612bcc565b80601f0160208091040260200160405190810160405280929190818152602001828054610cbe90612bcc565b8015610d0b5780601f10610ce057610100808354040283529160200191610d0b565b820191906000526020600020905b815481529060010190602001808311610cee57829003601f168201915b505050505090506000610d1c61186f565b9050600081511415610d32578192505050610d75565b600082511115610d67578082604051602001610d4f9291906126b4565b60405160208183030381529060405292505050610d75565b610d708461188f565b925050505b919050565b6000600560008473ffffffffffffffffffffffffffffffffffffffff1673ffffffffffffffffffffffffffffffffffffffff16815260200190815260200160002060008373ffffffffffffffffffffffffffffffffffffffff1673ffffffffffffffffffffffffffffffffffffffff16815260200190815260200160002060009054906101000a900460ff16905092915050565b610e16610fdc565b73ffffffffffffffffffffffffffffffffffffffff16610e34610a66565b73ffffffffffffffffffffffffffffffffffffffff1614610e8a576040517f08c379a0000000000000000000000000000000000000000000000000000000008152600401610e819061291c565b60405180910390fd5b600073ffffffffffffffffffffffffffffffffffffffff168173ffffffffffffffffffffffffffffffffffffffff161415610efa576040517f08c379a0000000000000000000000000000000000000000000000000000000008152600401610ef19061279c565b60405180910390fd5b610f03816115e0565b50565b60007f01ffc9a7000000000000000000000000000000000000000000000000000000007bffffffffffffffffffffffffffffffffffffffffffffffffffffffff1916827bffffffffffffffffffffffffffffffffffffffffffffffffffffffff1916149050919050565b60008073ffffffffffffffffffffffffffffffffffffffff166002600084815260200190815260200160002060009054906101000a900473ffffffffffffffffffffffffffffffffffffffff1673ffffffffffffffffffffffffffffffffffffffff1614159050919050565b600033905090565b816004600083815260200190815260200160002060006101000a81548173ffffffffffffffffffffffffffffffffffffffff021916908373ffffffffffffffffffffffffffffffffffffffff160217905550808273ffffffffffffffffffffffffffffffffffffffff16611057836107d0565b73ffffffffffffffffffffffffffffffffffffffff167f8c5be1e5ebec7d5bd14f71427d1e84f3dd0314c0f7b2291e5b200ac8c7c3b92560405160405180910390a45050565b60006110a882610f70565b6110e7576040517f08c379a00000000000000000000000000000000000000000000000000000000081526004016110de9061283c565b60405180910390fd5b60006110f2836107d0565b90508073ffffffffffffffffffffffffffffffffffffffff168473ffffffffffffffffffffffffffffffffffffffff16148061116157508373ffffffffffffffffffffffffffffffffffffffff16611149846105b3565b73ffffffffffffffffffffffffffffffffffffffff16145b8061117257506111718185610d7a565b5b91505092915050565b8273ffffffffffffffffffffffffffffffffffffffff1661119b826107d0565b73ffffffffffffffffffffffffffffffffffffffff16146111f1576040517f08c379a00000000000000000000000000000000000000000000000000000000081526004016111e8906127bc565b60405180910390fd5b600073ffffffffffffffffffffffffffffffffffffffff168273ffffffffffffffffffffffffffffffffffffffff161415611261576040517f08c379a0000000000000000000000000000000000000000000000000000000008152600401611258906127fc565b60405180910390fd5b61126c838383611936565b611277600082610fe4565b6001600360008573ffffffffffffffffffffffffffffffffffffffff1673ffffffffffffffffffffffffffffffffffffffff16815260200190815260200160002060008282546112c79190612ae2565b925050819055506001600360008473ffffffffffffffffffffffffffffffffffffffff1673ffffffffffffffffffffffffffffffffffffffff168152602001908152602001600020600082825461131e9190612a5b565b92505081905550816002600083815260200190815260200160002060006101000a81548173ffffffffffffffffffffffffffffffffffffffff021916908373ffffffffffffffffffffffffffffffffffffffff160217905550808273ffffffffffffffffffffffffffffffffffffffff168473ffffffffffffffffffffffffffffffffffffffff167fddf252ad1be2c89b69c2b068fc378daa952ba7f163c4a11628f55a4df523b3ef60405160405180910390a46113dd83838361193b565b505050565b6001816000016000828254019250508190555050565b600081600001549050919050565b600073ffffffffffffffffffffffffffffffffffffffff168273ffffffffffffffffffffffffffffffffffffffff161415611476576040517f08c379a000000000000000000000000000000000000000000000000000000000815260040161146d906128bc565b60405180910390fd5b61147f81610f70565b156114bf576040517f08c379a00000000000000000000000000000000000000000000000000000000081526004016114b6906127dc565b60405180910390fd5b6114cb60008383611936565b6001600360008473ffffffffffffffffffffffffffffffffffffffff1673ffffffffffffffffffffffffffffffffffffffff168152602001908152602001600020600082825461151b9190612a5b565b92505081905550816002600083815260200190815260200160002060006101000a81548173ffffffffffffffffffffffffffffffffffffffff021916908373ffffffffffffffffffffffffffffffffffffffff160217905550808273ffffffffffffffffffffffffffffffffffffffff16600073ffffffffffffffffffffffffffffffffffffffff167fddf252ad1be2c89b69c2b068fc378daa952ba7f163c4a11628f55a4df523b3ef60405160405180910390a46115dc6000838361193b565b5050565b6000600760009054906101000a900473ffffffffffffffffffffffffffffffffffffffff16905081600760006101000a81548173ffffffffffffffffffffffffffffffffffffffff021916908373ffffffffffffffffffffffffffffffffffffffff1602179055508173ffffffffffffffffffffffffffffffffffffffff168173ffffffffffffffffffffffffffffffffffffffff167f8be0079c531659141344cd1fd0a4f28419497f9722a3daafe3b4186f6b6457e060405160405180910390a35050565b8173ffffffffffffffffffffffffffffffffffffffff168373ffffffffffffffffffffffffffffffffffffffff161415611715576040517f08c379a000000000000000000000000000000000000000000000000000000000815260040161170c9061281c565b60405180910390fd5b80600560008573ffffffffffffffffffffffffffffffffffffffff1673ffffffffffffffffffffffffffffffffffffffff16815260200190815260200160002060008473ffffffffffffffffffffffffffffffffffffffff1673ffffffffffffffffffffffffffffffffffffffff16815260200190815260200160002060006101000a81548160ff0219169083151502179055508173ffffffffffffffffffffffffffffffffffffffff168373ffffffffffffffffffffffffffffffffffffffff167f17307eab39ab6107e8899845ad3d59bd9653f200f220920489ca2b5937696c3183604051611806919061273f565b60405180910390a3505050565b61181e84848461117b565b61182a84848484611940565b611869576040517f08c379a00000000000000000000000000000000000000000000000000000000081526004016118609061277c565b60405180910390fd5b50505050565b6060604051806060016040528060238152602001612da260239139905090565b606061189a82610f70565b6118d9576040517f08c379a00000000000000000000000000000000000000000000000000000000081526004016118d09061293c565b60405180910390fd5b60006118e361186f565b90506000815111611903576040518060200160405280600081525061192e565b8061190d84611ad7565b60405160200161191e9291906126b4565b6040516020818303038152906040525b915050919050565b505050565b505050565b60006119618473ffffffffffffffffffffffffffffffffffffffff16611c84565b15611aca578373ffffffffffffffffffffffffffffffffffffffff1663150b7a0261198a610fdc565b8786866040518563ffffffff1660e01b81526004016119ac94939291906126f3565b602060405180830381600087803b1580156119c657600080fd5b505af19250505080156119f757506040513d601f19601f820116820180604052508101906119f49190611f64565b60015b611a7a573d8060008114611a27576040519150601f19603f3d011682016040523d82523d6000602084013e611a2c565b606091505b50600081511415611a72576040517f08c379a0000000000000000000000000000000000000000000000000000000008152600401611a699061277c565b60405180910390fd5b805181602001fd5b63150b7a0260e01b7bffffffffffffffffffffffffffffffffffffffffffffffffffffffff1916817bffffffffffffffffffffffffffffffffffffffffffffffffffffffff191614915050611acf565b600190505b949350505050565b60606000821415611b1f576040518060400160405280600181526020017f30000000000000000000000000000000000000000000000000000000000000008152509050611c7f565b600082905060005b60008214611b51578080611b3a90612bfe565b915050600a82611b4a9190612ab1565b9150611b27565b60008167ffffffffffffffff811115611b93577f4e487b7100000000000000000000000000000000000000000000000000000000600052604160045260246000fd5b6040519080825280601f01601f191660200182016040528015611bc55781602001600182028036833780820191505090505b5090505b60008514611c7857600182611bde9190612ae2565b9150600a85611bed9190612c47565b6030611bf99190612a5b565b60f81b818381518110611c35577f4e487b7100000000000000000000000000000000000000000000000000000000600052603260045260246000fd5b60200101907effffffffffffffffffffffffffffffffffffffffffffffffffffffffffffff1916908160001a905350600a85611c719190612ab1565b9450611bc9565b8093505050505b919050565b6000808273ffffffffffffffffffffffffffffffffffffffff16803b806020016040519081016040528181526000908060200190933c51119050919050565b6000611cd6611cd1846129e8565b6129b7565b905082815260208101848484011115611cee57600080fd5b611cf9848285612b8a565b509392505050565b600081359050611d1081612d45565b92915050565b600081359050611d2581612d5c565b92915050565b600081359050611d3a81612d73565b92915050565b600081519050611d4f81612d73565b92915050565b600082601f830112611d6657600080fd5b8135611d76848260208601611cc3565b91505092915050565b600081359050611d8e81612d8a565b92915050565b600060208284031215611da657600080fd5b6000611db484828501611d01565b91505092915050565b60008060408385031215611dd057600080fd5b6000611dde85828601611d01565b9250506020611def85828601611d01565b9150509250929050565b600080600060608486031215611e0e57600080fd5b6000611e1c86828701611d01565b9350506020611e2d86828701611d01565b9250506040611e3e86828701611d7f565b9150509250925092565b60008060008060808587031215611e5e57600080fd5b6000611e6c87828801611d01565b9450506020611e7d87828801611d01565b9350506040611e8e87828801611d7f565b925050606085013567ffffffffffffffff811115611eab57600080fd5b611eb787828801611d55565b91505092959194509250565b60008060408385031215611ed657600080fd5b6000611ee485828601611d01565b9250506020611ef585828601611d16565b9150509250929050565b60008060408385031215611f1257600080fd5b6000611f2085828601611d01565b9250506020611f3185828601611d7f565b9150509250929050565b600060208284031215611f4d57600080fd5b6000611f5b84828501611d2b565b91505092915050565b600060208284031215611f7657600080fd5b6000611f8484828501611d40565b91505092915050565b600060208284031215611f9f57600080fd5b6000611fad84828501611d7f565b91505092915050565b611fbf81612b16565b82525050565b611fce81612b28565b82525050565b6000611fdf82612a18565b611fe98185612a2e565b9350611ff9818560208601612b99565b61200281612d34565b840191505092915050565b600061201882612a23565b6120228185612a3f565b9350612032818560208601612b99565b61203b81612d34565b840191505092915050565b600061205182612a23565b61205b8185612a50565b935061206b818560208601612b99565b80840191505092915050565b6000612084603283612a3f565b91507f4552433732313a207472616e7366657220746f206e6f6e20455243373231526560008301527f63656976657220696d706c656d656e74657200000000000000000000000000006020830152604082019050919050565b60006120ea602683612a3f565b91507f4f776e61626c653a206e6577206f776e657220697320746865207a65726f206160008301527f64647265737300000000000000000000000000000000000000000000000000006020830152604082019050919050565b6000612150602583612a3f565b91507f4552433732313a207472616e736665722066726f6d20696e636f72726563742060008301527f6f776e65720000000000000000000000000000000000000000000000000000006020830152604082019050919050565b60006121b6601c83612a3f565b91507f4552433732313a20746f6b656e20616c7265616479206d696e746564000000006000830152602082019050919050565b60006121f6602483612a3f565b91507f4552433732313a207472616e7366657220746f20746865207a65726f2061646460008301527f72657373000000000000000000000000000000000000000000000000000000006020830152604082019050919050565b600061225c601983612a3f565b91507f4552433732313a20617070726f766520746f2063616c6c6572000000000000006000830152602082019050919050565b600061229c602c83612a3f565b91507f4552433732313a206f70657261746f7220717565727920666f72206e6f6e657860008301527f697374656e7420746f6b656e00000000000000000000000000000000000000006020830152604082019050919050565b6000612302603883612a3f565b91507f4552433732313a20617070726f76652063616c6c6572206973206e6f74206f7760008301527f6e6572206e6f7220617070726f76656420666f7220616c6c00000000000000006020830152604082019050919050565b6000612368602a83612a3f565b91507f4552433732313a2062616c616e636520717565727920666f7220746865207a6560008301527f726f2061646472657373000000000000000000000000000000000000000000006020830152604082019050919050565b60006123ce602983612a3f565b91507f4552433732313a206f776e657220717565727920666f72206e6f6e657869737460008301527f656e7420746f6b656e00000000000000000000000000000000000000000000006020830152604082019050919050565b6000612434602083612a3f565b91507f4552433732313a206d696e7420746f20746865207a65726f20616464726573736000830152602082019050919050565b6000612474603183612a3f565b91507f45524337323155524953746f726167653a2055524920717565727920666f722060008301527f6e6f6e6578697374656e7420746f6b656e0000000000000000000000000000006020830152604082019050919050565b60006124da602c83612a3f565b91507f4552433732313a20617070726f76656420717565727920666f72206e6f6e657860008301527f697374656e7420746f6b656e00000000000000000000000000000000000000006020830152604082019050919050565b6000612540602083612a3f565b91507f4f776e61626c653a2063616c6c6572206973206e6f7420746865206f776e65726000830152602082019050919050565b6000612580602f83612a3f565b91507f4552433732314d657461646174613a2055524920717565727920666f72206e6f60008301527f6e6578697374656e7420746f6b656e00000000000000000000000000000000006020830152604082019050919050565b60006125e6602183612a3f565b91507f4552433732313a20617070726f76616c20746f2063757272656e74206f776e6560008301527f72000000000000000000000000000000000000000000000000000000000000006020830152604082019050919050565b600061264c603183612a3f565b91507f4552433732313a207472616e736665722063616c6c6572206973206e6f74206f60008301527f776e6572206e6f7220617070726f7665640000000000000000000000000000006020830152604082019050919050565b6126ae81612b80565b82525050565b60006126c08285612046565b91506126cc8284612046565b91508190509392505050565b60006020820190506126ed6000830184611fb6565b92915050565b60006080820190506127086000830187611fb6565b6127156020830186611fb6565b61272260408301856126a5565b81810360608301526127348184611fd4565b905095945050505050565b60006020820190506127546000830184611fc5565b92915050565b60006020820190508181036000830152612774818461200d565b905092915050565b6000602082019050818103600083015261279581612077565b9050919050565b600060208201905081810360008301526127b5816120dd565b9050919050565b600060208201905081810360008301526127d581612143565b9050919050565b600060208201905081810360008301526127f5816121a9565b9050919050565b60006020820190508181036000830152612815816121e9565b9050919050565b600060208201905081810360008301526128358161224f565b9050919050565b600060208201905081810360008301526128558161228f565b9050919050565b60006020820190508181036000830152612875816122f5565b9050919050565b600060208201905081810360008301526128958161235b565b9050919050565b600060208201905081810360008301526128b5816123c1565b9050919050565b600060208201905081810360008301526128d581612427565b9050919050565b600060208201905081810360008301526128f581612467565b9050919050565b60006020820190508181036000830152612915816124cd565b9050919050565b6000602082019050818103600083015261293581612533565b9050919050565b6000602082019050818103600083015261295581612573565b9050919050565b60006020820190508181036000830152612975816125d9565b9050919050565b600060208201905081810360008301526129958161263f565b9050919050565b60006020820190506129b160008301846126a5565b92915050565b6000604051905081810181811067ffffffffffffffff821117156129de576129dd612d05565b5b8060405250919050565b600067ffffffffffffffff821115612a0357612a02612d05565b5b601f19601f8301169050602081019050919050565b600081519050919050565b600081519050919050565b600082825260208201905092915050565b600082825260208201905092915050565b600081905092915050565b6000612a6682612b80565b9150612a7183612b80565b9250827fffffffffffffffffffffffffffffffffffffffffffffffffffffffffffffffff03821115612aa657612aa5612c78565b5b828201905092915050565b6000612abc82612b80565b9150612ac783612b80565b925082612ad757612ad6612ca7565b5b828204905092915050565b6000612aed82612b80565b9150612af883612b80565b925082821015612b0b57612b0a612c78565b5b828203905092915050565b6000612b2182612b60565b9050919050565b60008115159050919050565b60007fffffffff0000000000000000000000000000000000000000000000000000000082169050919050565b600073ffffffffffffffffffffffffffffffffffffffff82169050919050565b6000819050919050565b82818337600083830152505050565b60005b83811015612bb7578082015181840152602081019050612b9c565b83811115612bc6576000848401525b50505050565b60006002820490506001821680612be457607f821691505b60208210811415612bf857612bf7612cd6565b5b50919050565b6000612c0982612b80565b91507fffffffffffffffffffffffffffffffffffffffffffffffffffffffffffffffff821415612c3c57612c3b612c78565b5b600182019050919050565b6000612c5282612b80565b9150612c5d83612b80565b925082612c6d57612c6c612ca7565b5b828206905092915050565b7f4e487b7100000000000000000000000000000000000000000000000000000000600052601160045260246000fd5b7f4e487b7100000000000000000000000000000000000000000000000000000000600052601260045260246000fd5b7f4e487b7100000000000000000000000000000000000000000000000000000000600052602260045260246000fd5b7f4e487b7100000000000000000000000000000000000000000000000000000000600052604160045260246000fd5b6000601f19601f8301169050919050565b612d4e81612b16565b8114612d5957600080fd5b50565b612d6581612b28565b8114612d7057600080fd5b50565b612d7c81612b34565b8114612d8757600080fd5b50565b612d9381612b80565b8114612d9e57600080fd5b5056fe68747470733a2f2f6361746e667470726f6a6563742e6865726f6b756170702e636f6da2646970667358221220f68ccadccc18ef52ef68dcb97306a6b8c315d6c3e08836c2b5b82d80ff2d330e64736f6c63430008000033",
  "immutableReferences": {},
  "source": "//SPDX-License-Identifier: MIT\npragma solidity ^0.8.0;\nimport \"@openzeppelin/contracts/token/ERC721/extensions/ERC721URIStorage.sol\";\nimport \"@openzeppelin/contracts/utils/Counters.sol\";\nimport \"@openzeppelin/contracts/access/Ownable.sol\";\n\ncontract Cat is ERC721URIStorage,Ownable {\n    using Counters for Counters.Counter;\n    Counters.Counter private _tokenIds;\n    string public str;\n    \n    constructor() ERC721(\"X20243499_BCTABA\", \"CAT\")  {\n        \n    }\n\n    function purchase() payable public {\n        uint256 price=0.001 ether;\n        require(msg.value>=price);\n        _tokenIds.increment();\n        require(_tokenIds.current()<=2);\n        uint256 newItemId = _tokenIds.current();\n        payable(owner()).transfer(msg.value);\n        _mint(msg.sender, newItemId);       \n    }\n    function _baseURI() internal pure override returns (string memory)  {\n        return 'https://catnftproject.herokuapp.com';\n    }    \n}",
  "sourcePath": "/Users/princekurian/Desktop/NFT/contracts/Cat.sol",
  "compiler": {
    "name": "solc",
    "version": "0.8.0+commit.c7dfd78e.Emscripten.clang"
  },
  "schemaVersion": "3.4.4",
  "updatedAt": "2022-05-18T06:53:10.001Z",
  "devdoc": {
    "kind": "dev",
    "methods": {
      "approve(address,uint256)": {
        "details": "See {IERC721-approve}."
      },
      "balanceOf(address)": {
        "details": "See {IERC721-balanceOf}."
      },
      "getApproved(uint256)": {
        "details": "See {IERC721-getApproved}."
      },
      "isApprovedForAll(address,address)": {
        "details": "See {IERC721-isApprovedForAll}."
      },
      "name()": {
        "details": "See {IERC721Metadata-name}."
      },
      "owner()": {
        "details": "Returns the address of the current owner."
      },
      "ownerOf(uint256)": {
        "details": "See {IERC721-ownerOf}."
      },
      "renounceOwnership()": {
        "details": "Leaves the contract without owner. It will not be possible to call `onlyOwner` functions anymore. Can only be called by the current owner. NOTE: Renouncing ownership will leave the contract without an owner, thereby removing any functionality that is only available to the owner."
      },
      "safeTransferFrom(address,address,uint256)": {
        "details": "See {IERC721-safeTransferFrom}."
      },
      "safeTransferFrom(address,address,uint256,bytes)": {
        "details": "See {IERC721-safeTransferFrom}."
      },
      "setApprovalForAll(address,bool)": {
        "details": "See {IERC721-setApprovalForAll}."
      },
      "supportsInterface(bytes4)": {
        "details": "See {IERC165-supportsInterface}."
      },
      "symbol()": {
        "details": "See {IERC721Metadata-symbol}."
      },
      "tokenURI(uint256)": {
        "details": "See {IERC721Metadata-tokenURI}."
      },
      "transferFrom(address,address,uint256)": {
        "details": "See {IERC721-transferFrom}."
      },
      "transferOwnership(address)": {
        "details": "Transfers ownership of the contract to a new account (`newOwner`). Can only be called by the current owner."
      }
    },
    "version": 1
  },
  "userdoc": {
    "kind": "user",
    "methods": {},
    "version": 1
  }
}