{
  "contractName": "Land",
  "abi": [
    {
      "inputs": [],
      "stateMutability": "nonpayable",
      "type": "constructor"
    },
    {
      "anonymous": false,
      "inputs": [
        {
          "indexed": true,
          "internalType": "address",
          "name": "owner",
          "type": "address"
        },
        {
          "indexed": true,
          "internalType": "address",
          "name": "approved",
          "type": "address"
        },
        {
          "indexed": true,
          "internalType": "uint256",
          "name": "tokenId",
          "type": "uint256"
        }
      ],
      "name": "Approval",
      "type": "event"
    },
    {
      "anonymous": false,
      "inputs": [
        {
          "indexed": true,
          "internalType": "address",
          "name": "owner",
          "type": "address"
        },
        {
          "indexed": true,
          "internalType": "address",
          "name": "operator",
          "type": "address"
        },
        {
          "indexed": false,
          "internalType": "bool",
          "name": "approved",
          "type": "bool"
        }
      ],
      "name": "ApprovalForAll",
      "type": "event"
    },
    {
      "anonymous": false,
      "inputs": [
        {
          "indexed": true,
          "internalType": "address",
          "name": "previousOwner",
          "type": "address"
        },
        {
          "indexed": true,
          "internalType": "address",
          "name": "newOwner",
          "type": "address"
        }
      ],
      "name": "OwnershipTransferred",
      "type": "event"
    },
    {
      "anonymous": false,
      "inputs": [
        {
          "indexed": true,
          "internalType": "address",
          "name": "from",
          "type": "address"
        },
        {
          "indexed": true,
          "internalType": "address",
          "name": "to",
          "type": "address"
        },
        {
          "indexed": true,
          "internalType": "uint256",
          "name": "tokenId",
          "type": "uint256"
        }
      ],
      "name": "Transfer",
      "type": "event"
    },
    {
      "inputs": [
        {
          "internalType": "address",
          "name": "to",
          "type": "address"
        },
        {
          "internalType": "uint256",
          "name": "tokenId",
          "type": "uint256"
        }
      ],
      "name": "approve",
      "outputs": [],
      "stateMutability": "nonpayable",
      "type": "function"
    },
    {
      "inputs": [
        {
          "internalType": "address",
          "name": "owner",
          "type": "address"
        }
      ],
      "name": "balanceOf",
      "outputs": [
        {
          "internalType": "uint256",
          "name": "",
          "type": "uint256"
        }
      ],
      "stateMutability": "view",
      "type": "function",
      "constant": true
    },
    {
      "inputs": [
        {
          "internalType": "uint256",
          "name": "tokenId",
          "type": "uint256"
        }
      ],
      "name": "getApproved",
      "outputs": [
        {
          "internalType": "address",
          "name": "",
          "type": "address"
        }
      ],
      "stateMutability": "view",
      "type": "function",
      "constant": true
    },
    {
      "inputs": [
        {
          "internalType": "address",
          "name": "owner",
          "type": "address"
        },
        {
          "internalType": "address",
          "name": "operator",
          "type": "address"
        }
      ],
      "name": "isApprovedForAll",
      "outputs": [
        {
          "internalType": "bool",
          "name": "",
          "type": "bool"
        }
      ],
      "stateMutability": "view",
      "type": "function",
      "constant": true
    },
    {
      "inputs": [],
      "name": "name",
      "outputs": [
        {
          "internalType": "string",
          "name": "",
          "type": "string"
        }
      ],
      "stateMutability": "view",
      "type": "function",
      "constant": true
    },
    {
      "inputs": [],
      "name": "owner",
      "outputs": [
        {
          "internalType": "address",
          "name": "",
          "type": "address"
        }
      ],
      "stateMutability": "view",
      "type": "function",
      "constant": true
    },
    {
      "inputs": [
        {
          "internalType": "uint256",
          "name": "tokenId",
          "type": "uint256"
        }
      ],
      "name": "ownerOf",
      "outputs": [
        {
          "internalType": "address",
          "name": "",
          "type": "address"
        }
      ],
      "stateMutability": "view",
      "type": "function",
      "constant": true
    },
    {
      "inputs": [
        {
          "internalType": "uint256",
          "name": "",
          "type": "uint256"
        }
      ],
      "name": "purchased",
      "outputs": [
        {
          "internalType": "bool",
          "name": "",
          "type": "bool"
        }
      ],
      "stateMutability": "view",
      "type": "function",
      "constant": true
    },
    {
      "inputs": [],
      "name": "renounceOwnership",
      "outputs": [],
      "stateMutability": "nonpayable",
      "type": "function"
    },
    {
      "inputs": [
        {
          "internalType": "address",
          "name": "from",
          "type": "address"
        },
        {
          "internalType": "address",
          "name": "to",
          "type": "address"
        },
        {
          "internalType": "uint256",
          "name": "tokenId",
          "type": "uint256"
        }
      ],
      "name": "safeTransferFrom",
      "outputs": [],
      "stateMutability": "nonpayable",
      "type": "function"
    },
    {
      "inputs": [
        {
          "internalType": "address",
          "name": "from",
          "type": "address"
        },
        {
          "internalType": "address",
          "name": "to",
          "type": "address"
        },
        {
          "internalType": "uint256",
          "name": "tokenId",
          "type": "uint256"
        },
        {
          "internalType": "bytes",
          "name": "_data",
          "type": "bytes"
        }
      ],
      "name": "safeTransferFrom",
      "outputs": [],
      "stateMutability": "nonpayable",
      "type": "function"
    },
    {
      "inputs": [
        {
          "internalType": "address",
          "name": "operator",
          "type": "address"
        },
        {
          "internalType": "bool",
          "name": "approved",
          "type": "bool"
        }
      ],
      "name": "setApprovalForAll",
      "outputs": [],
      "stateMutability": "nonpayable",
      "type": "function"
    },
    {
      "inputs": [
        {
          "internalType": "bytes4",
          "name": "interfaceId",
          "type": "bytes4"
        }
      ],
      "name": "supportsInterface",
      "outputs": [
        {
          "internalType": "bool",
          "name": "",
          "type": "bool"
        }
      ],
      "stateMutability": "view",
      "type": "function",
      "constant": true
    },
    {
      "inputs": [],
      "name": "symbol",
      "outputs": [
        {
          "internalType": "string",
          "name": "",
          "type": "string"
        }
      ],
      "stateMutability": "view",
      "type": "function",
      "constant": true
    },
    {
      "inputs": [
        {
          "internalType": "uint256",
          "name": "tokenId",
          "type": "uint256"
        }
      ],
      "name": "tokenURI",
      "outputs": [
        {
          "internalType": "string",
          "name": "",
          "type": "string"
        }
      ],
      "stateMutability": "view",
      "type": "function",
      "constant": true
    },
    {
      "inputs": [
        {
          "internalType": "address",
          "name": "from",
          "type": "address"
        },
        {
          "internalType": "address",
          "name": "to",
          "type": "address"
        },
        {
          "internalType": "uint256",
          "name": "tokenId",
          "type": "uint256"
        }
      ],
      "name": "transferFrom",
      "outputs": [],
      "stateMutability": "nonpayable",
      "type": "function"
    },
    {
      "inputs": [
        {
          "internalType": "address",
          "name": "newOwner",
          "type": "address"
        }
      ],
      "name": "transferOwnership",
      "outputs": [],
      "stateMutability": "nonpayable",
      "type": "function"
    },
    {
      "inputs": [
        {
          "internalType": "uint256",
          "name": "_tokenId",
          "type": "uint256"
        },
        {
          "internalType": "string",
          "name": "_uri",
          "type": "string"
        }
      ],
      "name": "purchase",
      "outputs": [],
      "stateMutability": "payable",
      "type": "function",
      "payable": true
    }
  ],
  "bytecode": "0x60806040523480156200001157600080fd5b506040518060400160405280600481526020017f4c616e64000000000000000000000000000000000000000000000000000000008152506040518060400160405280600381526020017f4c4e440000000000000000000000000000000000000000000000000000000000815250816000908051906020019062000096929190620001a6565b508060019080519060200190620000af929190620001a6565b505050620000d2620000c6620000d860201b60201c565b620000e060201b60201c565b620002bb565b600033905090565b6000600760009054906101000a900473ffffffffffffffffffffffffffffffffffffffff16905081600760006101000a81548173ffffffffffffffffffffffffffffffffffffffff021916908373ffffffffffffffffffffffffffffffffffffffff1602179055508173ffffffffffffffffffffffffffffffffffffffff168173ffffffffffffffffffffffffffffffffffffffff167f8be0079c531659141344cd1fd0a4f28419497f9722a3daafe3b4186f6b6457e060405160405180910390a35050565b828054620001b49062000256565b90600052602060002090601f016020900481019282620001d8576000855562000224565b82601f10620001f357805160ff191683800117855562000224565b8280016001018555821562000224579182015b828111156200022357825182559160200191906001019062000206565b5b50905062000233919062000237565b5090565b5b808211156200025257600081600090555060010162000238565b5090565b600060028204905060018216806200026f57607f821691505b602082108114156200028657620002856200028c565b5b50919050565b7f4e487b7100000000000000000000000000000000000000000000000000000000600052602260045260246000fd5b6130ba80620002cb6000396000f3fe6080604052600436106101095760003560e01c80638da5cb5b11610095578063c87b56dd11610064578063c87b56dd14610367578063d9ae93d2146103a4578063da9581b6146103e1578063e985e9c5146103fd578063f2fde38b1461043a57610109565b80638da5cb5b146102bf57806395d89b41146102ea578063a22cb46514610315578063b88d4fde1461033e57610109565b806323b872dd116100dc57806323b872dd146101dc57806342842e0e146102055780636352211e1461022e57806370a082311461026b578063715018a6146102a857610109565b806301ffc9a71461010e57806306fdde031461014b578063081812fc14610176578063095ea7b3146101b3575b600080fd5b34801561011a57600080fd5b5061013560048036038101906101309190612015565b610463565b60405161014291906124b5565b60405180910390f35b34801561015757600080fd5b50610160610545565b60405161016d91906124d0565b60405180910390f35b34801561018257600080fd5b5061019d60048036038101906101989190612067565b6105d7565b6040516101aa919061244e565b60405180910390f35b3480156101bf57600080fd5b506101da60048036038101906101d59190611fd9565b61065c565b005b3480156101e857600080fd5b5061020360048036038101906101fe9190611ed3565b610774565b005b34801561021157600080fd5b5061022c60048036038101906102279190611ed3565b6107d4565b005b34801561023a57600080fd5b5061025560048036038101906102509190612067565b6107f4565b604051610262919061244e565b60405180910390f35b34801561027757600080fd5b50610292600480360381019061028d9190611e6e565b6108a6565b60405161029f9190612732565b60405180910390f35b3480156102b457600080fd5b506102bd61095e565b005b3480156102cb57600080fd5b506102d46109e6565b6040516102e1919061244e565b60405180910390f35b3480156102f657600080fd5b506102ff610a10565b60405161030c91906124d0565b60405180910390f35b34801561032157600080fd5b5061033c60048036038101906103379190611f9d565b610aa2565b005b34801561034a57600080fd5b5061036560048036038101906103609190611f22565b610ab8565b005b34801561037357600080fd5b5061038e60048036038101906103899190612067565b610b1a565b60405161039b91906124d0565b60405180910390f35b3480156103b057600080fd5b506103cb60048036038101906103c69190612067565b610c6c565b6040516103d891906124b5565b60405180910390f35b6103fb60048036038101906103f69190612090565b610c8c565b005b34801561040957600080fd5b50610424600480360381019061041f9190611e97565b610d1e565b60405161043191906124b5565b60405180910390f35b34801561044657600080fd5b50610461600480360381019061045c9190611e6e565b610db2565b005b60007f80ac58cd000000000000000000000000000000000000000000000000000000007bffffffffffffffffffffffffffffffffffffffffffffffffffffffff1916827bffffffffffffffffffffffffffffffffffffffffffffffffffffffff1916148061052e57507f5b5e139f000000000000000000000000000000000000000000000000000000007bffffffffffffffffffffffffffffffffffffffffffffffffffffffff1916827bffffffffffffffffffffffffffffffffffffffffffffffffffffffff1916145b8061053e575061053d82610eaa565b5b9050919050565b60606000805461055490612988565b80601f016020809104026020016040519081016040528092919081815260200182805461058090612988565b80156105cd5780601f106105a2576101008083540402835291602001916105cd565b820191906000526020600020905b8154815290600101906020018083116105b057829003601f168201915b5050505050905090565b60006105e282610f14565b610621576040517f08c379a000000000000000000000000000000000000000000000000000000000815260040161061890612692565b60405180910390fd5b6004600083815260200190815260200160002060009054906101000a900473ffffffffffffffffffffffffffffffffffffffff169050919050565b6000610667826107f4565b90508073ffffffffffffffffffffffffffffffffffffffff168373ffffffffffffffffffffffffffffffffffffffff1614156106d8576040517f08c379a00000000000000000000000000000000000000000000000000000000081526004016106cf906126f2565b60405180910390fd5b8073ffffffffffffffffffffffffffffffffffffffff166106f7610f80565b73ffffffffffffffffffffffffffffffffffffffff161480610726575061072581610720610f80565b610d1e565b5b610765576040517f08c379a000000000000000000000000000000000000000000000000000000000815260040161075c906125d2565b60405180910390fd5b61076f8383610f88565b505050565b61078561077f610f80565b82611041565b6107c4576040517f08c379a00000000000000000000000000000000000000000000000000000000081526004016107bb90612712565b60405180910390fd5b6107cf83838361111f565b505050565b6107ef83838360405180602001604052806000815250610ab8565b505050565b6000806002600084815260200190815260200160002060009054906101000a900473ffffffffffffffffffffffffffffffffffffffff169050600073ffffffffffffffffffffffffffffffffffffffff168173ffffffffffffffffffffffffffffffffffffffff16141561089d576040517f08c379a000000000000000000000000000000000000000000000000000000000815260040161089490612612565b60405180910390fd5b80915050919050565b60008073ffffffffffffffffffffffffffffffffffffffff168273ffffffffffffffffffffffffffffffffffffffff161415610917576040517f08c379a000000000000000000000000000000000000000000000000000000000815260040161090e906125f2565b60405180910390fd5b600360008373ffffffffffffffffffffffffffffffffffffffff1673ffffffffffffffffffffffffffffffffffffffff168152602001908152602001600020549050919050565b610966610f80565b73ffffffffffffffffffffffffffffffffffffffff166109846109e6565b73ffffffffffffffffffffffffffffffffffffffff16146109da576040517f08c379a00000000000000000000000000000000000000000000000000000000081526004016109d1906126b2565b60405180910390fd5b6109e46000611386565b565b6000600760009054906101000a900473ffffffffffffffffffffffffffffffffffffffff16905090565b606060018054610a1f90612988565b80601f0160208091040260200160405190810160405280929190818152602001828054610a4b90612988565b8015610a985780601f10610a6d57610100808354040283529160200191610a98565b820191906000526020600020905b815481529060010190602001808311610a7b57829003601f168201915b5050505050905090565b610ab4610aad610f80565b838361144c565b5050565b610ac9610ac3610f80565b83611041565b610b08576040517f08c379a0000000000000000000000000000000000000000000000000000000008152600401610aff90612712565b60405180910390fd5b610b14848484846115b9565b50505050565b6060610b2582610f14565b610b64576040517f08c379a0000000000000000000000000000000000000000000000000000000008152600401610b5b90612672565b60405180910390fd5b6000600660008481526020019081526020016000208054610b8490612988565b80601f0160208091040260200160405190810160405280929190818152602001828054610bb090612988565b8015610bfd5780601f10610bd257610100808354040283529160200191610bfd565b820191906000526020600020905b815481529060010190602001808311610be057829003601f168201915b505050505090506000610c0e611615565b9050600081511415610c24578192505050610c67565b600082511115610c59578082604051602001610c4192919061242a565b60405160208183030381529060405292505050610c67565b610c628461162c565b925050505b919050565b60086020528060005260406000206000915054906101000a900460ff1681565b610c946109e6565b73ffffffffffffffffffffffffffffffffffffffff166108fc349081150290604051600060405180830381858888f19350505050158015610cd9573d6000803e3d6000fd5b50610ce433836116d3565b610cee82826118ad565b60016008600084815260200190815260200160002060006101000a81548160ff0219169083151502179055505050565b6000600560008473ffffffffffffffffffffffffffffffffffffffff1673ffffffffffffffffffffffffffffffffffffffff16815260200190815260200160002060008373ffffffffffffffffffffffffffffffffffffffff1673ffffffffffffffffffffffffffffffffffffffff16815260200190815260200160002060009054906101000a900460ff16905092915050565b610dba610f80565b73ffffffffffffffffffffffffffffffffffffffff16610dd86109e6565b73ffffffffffffffffffffffffffffffffffffffff1614610e2e576040517f08c379a0000000000000000000000000000000000000000000000000000000008152600401610e25906126b2565b60405180910390fd5b600073ffffffffffffffffffffffffffffffffffffffff168173ffffffffffffffffffffffffffffffffffffffff161415610e9e576040517f08c379a0000000000000000000000000000000000000000000000000000000008152600401610e9590612512565b60405180910390fd5b610ea781611386565b50565b60007f01ffc9a7000000000000000000000000000000000000000000000000000000007bffffffffffffffffffffffffffffffffffffffffffffffffffffffff1916827bffffffffffffffffffffffffffffffffffffffffffffffffffffffff1916149050919050565b60008073ffffffffffffffffffffffffffffffffffffffff166002600084815260200190815260200160002060009054906101000a900473ffffffffffffffffffffffffffffffffffffffff1673ffffffffffffffffffffffffffffffffffffffff1614159050919050565b600033905090565b816004600083815260200190815260200160002060006101000a81548173ffffffffffffffffffffffffffffffffffffffff021916908373ffffffffffffffffffffffffffffffffffffffff160217905550808273ffffffffffffffffffffffffffffffffffffffff16610ffb836107f4565b73ffffffffffffffffffffffffffffffffffffffff167f8c5be1e5ebec7d5bd14f71427d1e84f3dd0314c0f7b2291e5b200ac8c7c3b92560405160405180910390a45050565b600061104c82610f14565b61108b576040517f08c379a0000000000000000000000000000000000000000000000000000000008152600401611082906125b2565b60405180910390fd5b6000611096836107f4565b90508073ffffffffffffffffffffffffffffffffffffffff168473ffffffffffffffffffffffffffffffffffffffff16148061110557508373ffffffffffffffffffffffffffffffffffffffff166110ed846105d7565b73ffffffffffffffffffffffffffffffffffffffff16145b8061111657506111158185610d1e565b5b91505092915050565b8273ffffffffffffffffffffffffffffffffffffffff1661113f826107f4565b73ffffffffffffffffffffffffffffffffffffffff1614611195576040517f08c379a000000000000000000000000000000000000000000000000000000000815260040161118c90612532565b60405180910390fd5b600073ffffffffffffffffffffffffffffffffffffffff168273ffffffffffffffffffffffffffffffffffffffff161415611205576040517f08c379a00000000000000000000000000000000000000000000000000000000081526004016111fc90612572565b60405180910390fd5b611210838383611921565b61121b600082610f88565b6001600360008573ffffffffffffffffffffffffffffffffffffffff1673ffffffffffffffffffffffffffffffffffffffff168152602001908152602001600020600082825461126b919061289e565b925050819055506001600360008473ffffffffffffffffffffffffffffffffffffffff1673ffffffffffffffffffffffffffffffffffffffff16815260200190815260200160002060008282546112c29190612817565b92505081905550816002600083815260200190815260200160002060006101000a81548173ffffffffffffffffffffffffffffffffffffffff021916908373ffffffffffffffffffffffffffffffffffffffff160217905550808273ffffffffffffffffffffffffffffffffffffffff168473ffffffffffffffffffffffffffffffffffffffff167fddf252ad1be2c89b69c2b068fc378daa952ba7f163c4a11628f55a4df523b3ef60405160405180910390a4611381838383611926565b505050565b6000600760009054906101000a900473ffffffffffffffffffffffffffffffffffffffff16905081600760006101000a81548173ffffffffffffffffffffffffffffffffffffffff021916908373ffffffffffffffffffffffffffffffffffffffff1602179055508173ffffffffffffffffffffffffffffffffffffffff168173ffffffffffffffffffffffffffffffffffffffff167f8be0079c531659141344cd1fd0a4f28419497f9722a3daafe3b4186f6b6457e060405160405180910390a35050565b8173ffffffffffffffffffffffffffffffffffffffff168373ffffffffffffffffffffffffffffffffffffffff1614156114bb576040517f08c379a00000000000000000000000000000000000000000000000000000000081526004016114b290612592565b60405180910390fd5b80600560008573ffffffffffffffffffffffffffffffffffffffff1673ffffffffffffffffffffffffffffffffffffffff16815260200190815260200160002060008473ffffffffffffffffffffffffffffffffffffffff1673ffffffffffffffffffffffffffffffffffffffff16815260200190815260200160002060006101000a81548160ff0219169083151502179055508173ffffffffffffffffffffffffffffffffffffffff168373ffffffffffffffffffffffffffffffffffffffff167f17307eab39ab6107e8899845ad3d59bd9653f200f220920489ca2b5937696c31836040516115ac91906124b5565b60405180910390a3505050565b6115c484848461111f565b6115d08484848461192b565b61160f576040517f08c379a0000000000000000000000000000000000000000000000000000000008152600401611606906124f2565b60405180910390fd5b50505050565b606060405180602001604052806000815250905090565b606061163782610f14565b611676576040517f08c379a000000000000000000000000000000000000000000000000000000000815260040161166d906126d2565b60405180910390fd5b6000611680611615565b905060008151116116a057604051806020016040528060008152506116cb565b806116aa84611ac2565b6040516020016116bb92919061242a565b6040516020818303038152906040525b915050919050565b600073ffffffffffffffffffffffffffffffffffffffff168273ffffffffffffffffffffffffffffffffffffffff161415611743576040517f08c379a000000000000000000000000000000000000000000000000000000000815260040161173a90612652565b60405180910390fd5b61174c81610f14565b1561178c576040517f08c379a000000000000000000000000000000000000000000000000000000000815260040161178390612552565b60405180910390fd5b61179860008383611921565b6001600360008473ffffffffffffffffffffffffffffffffffffffff1673ffffffffffffffffffffffffffffffffffffffff16815260200190815260200160002060008282546117e89190612817565b92505081905550816002600083815260200190815260200160002060006101000a81548173ffffffffffffffffffffffffffffffffffffffff021916908373ffffffffffffffffffffffffffffffffffffffff160217905550808273ffffffffffffffffffffffffffffffffffffffff16600073ffffffffffffffffffffffffffffffffffffffff167fddf252ad1be2c89b69c2b068fc378daa952ba7f163c4a11628f55a4df523b3ef60405160405180910390a46118a960008383611926565b5050565b6118b682610f14565b6118f5576040517f08c379a00000000000000000000000000000000000000000000000000000000081526004016118ec90612632565b60405180910390fd5b8060066000848152602001908152602001600020908051906020019061191c929190611c92565b505050565b505050565b505050565b600061194c8473ffffffffffffffffffffffffffffffffffffffff16611c6f565b15611ab5578373ffffffffffffffffffffffffffffffffffffffff1663150b7a02611975610f80565b8786866040518563ffffffff1660e01b81526004016119979493929190612469565b602060405180830381600087803b1580156119b157600080fd5b505af19250505080156119e257506040513d601f19601f820116820180604052508101906119df919061203e565b60015b611a65573d8060008114611a12576040519150601f19603f3d011682016040523d82523d6000602084013e611a17565b606091505b50600081511415611a5d576040517f08c379a0000000000000000000000000000000000000000000000000000000008152600401611a54906124f2565b60405180910390fd5b805181602001fd5b63150b7a0260e01b7bffffffffffffffffffffffffffffffffffffffffffffffffffffffff1916817bffffffffffffffffffffffffffffffffffffffffffffffffffffffff191614915050611aba565b600190505b949350505050565b60606000821415611b0a576040518060400160405280600181526020017f30000000000000000000000000000000000000000000000000000000000000008152509050611c6a565b600082905060005b60008214611b3c578080611b25906129eb565b915050600a82611b35919061286d565b9150611b12565b60008167ffffffffffffffff811115611b7e577f4e487b7100000000000000000000000000000000000000000000000000000000600052604160045260246000fd5b6040519080825280601f01601f191660200182016040528015611bb05781602001600182028036833780820191505090505b5090505b60008514611c6357600182611bc9919061289e565b9150600a85611bd89190612a34565b6030611be49190612817565b60f81b818381518110611c20577f4e487b7100000000000000000000000000000000000000000000000000000000600052603260045260246000fd5b60200101907effffffffffffffffffffffffffffffffffffffffffffffffffffffffffffff1916908160001a905350600a85611c5c919061286d565b9450611bb4565b8093505050505b919050565b6000808273ffffffffffffffffffffffffffffffffffffffff163b119050919050565b828054611c9e90612988565b90600052602060002090601f016020900481019282611cc05760008555611d07565b82601f10611cd957805160ff1916838001178555611d07565b82800160010185558215611d07579182015b82811115611d06578251825591602001919060010190611ceb565b5b509050611d149190611d18565b5090565b5b80821115611d31576000816000905550600101611d19565b5090565b6000611d48611d4384612772565b61274d565b905082815260208101848484011115611d6057600080fd5b611d6b848285612946565b509392505050565b6000611d86611d81846127a3565b61274d565b905082815260208101848484011115611d9e57600080fd5b611da9848285612946565b509392505050565b600081359050611dc081613028565b92915050565b600081359050611dd58161303f565b92915050565b600081359050611dea81613056565b92915050565b600081519050611dff81613056565b92915050565b600082601f830112611e1657600080fd5b8135611e26848260208601611d35565b91505092915050565b600082601f830112611e4057600080fd5b8135611e50848260208601611d73565b91505092915050565b600081359050611e688161306d565b92915050565b600060208284031215611e8057600080fd5b6000611e8e84828501611db1565b91505092915050565b60008060408385031215611eaa57600080fd5b6000611eb885828601611db1565b9250506020611ec985828601611db1565b9150509250929050565b600080600060608486031215611ee857600080fd5b6000611ef686828701611db1565b9350506020611f0786828701611db1565b9250506040611f1886828701611e59565b9150509250925092565b60008060008060808587031215611f3857600080fd5b6000611f4687828801611db1565b9450506020611f5787828801611db1565b9350506040611f6887828801611e59565b925050606085013567ffffffffffffffff811115611f8557600080fd5b611f9187828801611e05565b91505092959194509250565b60008060408385031215611fb057600080fd5b6000611fbe85828601611db1565b9250506020611fcf85828601611dc6565b9150509250929050565b60008060408385031215611fec57600080fd5b6000611ffa85828601611db1565b925050602061200b85828601611e59565b9150509250929050565b60006020828403121561202757600080fd5b600061203584828501611ddb565b91505092915050565b60006020828403121561205057600080fd5b600061205e84828501611df0565b91505092915050565b60006020828403121561207957600080fd5b600061208784828501611e59565b91505092915050565b600080604083850312156120a357600080fd5b60006120b185828601611e59565b925050602083013567ffffffffffffffff8111156120ce57600080fd5b6120da85828601611e2f565b9150509250929050565b6120ed816128d2565b82525050565b6120fc816128e4565b82525050565b600061210d826127d4565b61211781856127ea565b9350612127818560208601612955565b61213081612b21565b840191505092915050565b6000612146826127df565b61215081856127fb565b9350612160818560208601612955565b61216981612b21565b840191505092915050565b600061217f826127df565b612189818561280c565b9350612199818560208601612955565b80840191505092915050565b60006121b26032836127fb565b91506121bd82612b32565b604082019050919050565b60006121d56026836127fb565b91506121e082612b81565b604082019050919050565b60006121f86025836127fb565b915061220382612bd0565b604082019050919050565b600061221b601c836127fb565b915061222682612c1f565b602082019050919050565b600061223e6024836127fb565b915061224982612c48565b604082019050919050565b60006122616019836127fb565b915061226c82612c97565b602082019050919050565b6000612284602c836127fb565b915061228f82612cc0565b604082019050919050565b60006122a76038836127fb565b91506122b282612d0f565b604082019050919050565b60006122ca602a836127fb565b91506122d582612d5e565b604082019050919050565b60006122ed6029836127fb565b91506122f882612dad565b604082019050919050565b6000612310602e836127fb565b915061231b82612dfc565b604082019050919050565b60006123336020836127fb565b915061233e82612e4b565b602082019050919050565b60006123566031836127fb565b915061236182612e74565b604082019050919050565b6000612379602c836127fb565b915061238482612ec3565b604082019050919050565b600061239c6020836127fb565b91506123a782612f12565b602082019050919050565b60006123bf602f836127fb565b91506123ca82612f3b565b604082019050919050565b60006123e26021836127fb565b91506123ed82612f8a565b604082019050919050565b60006124056031836127fb565b915061241082612fd9565b604082019050919050565b6124248161293c565b82525050565b60006124368285612174565b91506124428284612174565b91508190509392505050565b600060208201905061246360008301846120e4565b92915050565b600060808201905061247e60008301876120e4565b61248b60208301866120e4565b612498604083018561241b565b81810360608301526124aa8184612102565b905095945050505050565b60006020820190506124ca60008301846120f3565b92915050565b600060208201905081810360008301526124ea818461213b565b905092915050565b6000602082019050818103600083015261250b816121a5565b9050919050565b6000602082019050818103600083015261252b816121c8565b9050919050565b6000602082019050818103600083015261254b816121eb565b9050919050565b6000602082019050818103600083015261256b8161220e565b9050919050565b6000602082019050818103600083015261258b81612231565b9050919050565b600060208201905081810360008301526125ab81612254565b9050919050565b600060208201905081810360008301526125cb81612277565b9050919050565b600060208201905081810360008301526125eb8161229a565b9050919050565b6000602082019050818103600083015261260b816122bd565b9050919050565b6000602082019050818103600083015261262b816122e0565b9050919050565b6000602082019050818103600083015261264b81612303565b9050919050565b6000602082019050818103600083015261266b81612326565b9050919050565b6000602082019050818103600083015261268b81612349565b9050919050565b600060208201905081810360008301526126ab8161236c565b9050919050565b600060208201905081810360008301526126cb8161238f565b9050919050565b600060208201905081810360008301526126eb816123b2565b9050919050565b6000602082019050818103600083015261270b816123d5565b9050919050565b6000602082019050818103600083015261272b816123f8565b9050919050565b6000602082019050612747600083018461241b565b92915050565b6000612757612768565b905061276382826129ba565b919050565b6000604051905090565b600067ffffffffffffffff82111561278d5761278c612af2565b5b61279682612b21565b9050602081019050919050565b600067ffffffffffffffff8211156127be576127bd612af2565b5b6127c782612b21565b9050602081019050919050565b600081519050919050565b600081519050919050565b600082825260208201905092915050565b600082825260208201905092915050565b600081905092915050565b60006128228261293c565b915061282d8361293c565b9250827fffffffffffffffffffffffffffffffffffffffffffffffffffffffffffffffff0382111561286257612861612a65565b5b828201905092915050565b60006128788261293c565b91506128838361293c565b92508261289357612892612a94565b5b828204905092915050565b60006128a98261293c565b91506128b48361293c565b9250828210156128c7576128c6612a65565b5b828203905092915050565b60006128dd8261291c565b9050919050565b60008115159050919050565b60007fffffffff0000000000000000000000000000000000000000000000000000000082169050919050565b600073ffffffffffffffffffffffffffffffffffffffff82169050919050565b6000819050919050565b82818337600083830152505050565b60005b83811015612973578082015181840152602081019050612958565b83811115612982576000848401525b50505050565b600060028204905060018216806129a057607f821691505b602082108114156129b4576129b3612ac3565b5b50919050565b6129c382612b21565b810181811067ffffffffffffffff821117156129e2576129e1612af2565b5b80604052505050565b60006129f68261293c565b91507fffffffffffffffffffffffffffffffffffffffffffffffffffffffffffffffff821415612a2957612a28612a65565b5b600182019050919050565b6000612a3f8261293c565b9150612a4a8361293c565b925082612a5a57612a59612a94565b5b828206905092915050565b7f4e487b7100000000000000000000000000000000000000000000000000000000600052601160045260246000fd5b7f4e487b7100000000000000000000000000000000000000000000000000000000600052601260045260246000fd5b7f4e487b7100000000000000000000000000000000000000000000000000000000600052602260045260246000fd5b7f4e487b7100000000000000000000000000000000000000000000000000000000600052604160045260246000fd5b6000601f19601f8301169050919050565b7f4552433732313a207472616e7366657220746f206e6f6e20455243373231526560008201527f63656976657220696d706c656d656e7465720000000000000000000000000000602082015250565b7f4f776e61626c653a206e6577206f776e657220697320746865207a65726f206160008201527f6464726573730000000000000000000000000000000000000000000000000000602082015250565b7f4552433732313a207472616e736665722066726f6d20696e636f72726563742060008201527f6f776e6572000000000000000000000000000000000000000000000000000000602082015250565b7f4552433732313a20746f6b656e20616c7265616479206d696e74656400000000600082015250565b7f4552433732313a207472616e7366657220746f20746865207a65726f2061646460008201527f7265737300000000000000000000000000000000000000000000000000000000602082015250565b7f4552433732313a20617070726f766520746f2063616c6c657200000000000000600082015250565b7f4552433732313a206f70657261746f7220717565727920666f72206e6f6e657860008201527f697374656e7420746f6b656e0000000000000000000000000000000000000000602082015250565b7f4552433732313a20617070726f76652063616c6c6572206973206e6f74206f7760008201527f6e6572206e6f7220617070726f76656420666f7220616c6c0000000000000000602082015250565b7f4552433732313a2062616c616e636520717565727920666f7220746865207a6560008201527f726f206164647265737300000000000000000000000000000000000000000000602082015250565b7f4552433732313a206f776e657220717565727920666f72206e6f6e657869737460008201527f656e7420746f6b656e0000000000000000000000000000000000000000000000602082015250565b7f45524337323155524953746f726167653a2055524920736574206f66206e6f6e60008201527f6578697374656e7420746f6b656e000000000000000000000000000000000000602082015250565b7f4552433732313a206d696e7420746f20746865207a65726f2061646472657373600082015250565b7f45524337323155524953746f726167653a2055524920717565727920666f722060008201527f6e6f6e6578697374656e7420746f6b656e000000000000000000000000000000602082015250565b7f4552433732313a20617070726f76656420717565727920666f72206e6f6e657860008201527f697374656e7420746f6b656e0000000000000000000000000000000000000000602082015250565b7f4f776e61626c653a2063616c6c6572206973206e6f7420746865206f776e6572600082015250565b7f4552433732314d657461646174613a2055524920717565727920666f72206e6f60008201527f6e6578697374656e7420746f6b656e0000000000000000000000000000000000602082015250565b7f4552433732313a20617070726f76616c20746f2063757272656e74206f776e6560008201527f7200000000000000000000000000000000000000000000000000000000000000602082015250565b7f4552433732313a207472616e736665722063616c6c6572206973206e6f74206f60008201527f776e6572206e6f7220617070726f766564000000000000000000000000000000602082015250565b613031816128d2565b811461303c57600080fd5b50565b613048816128e4565b811461305357600080fd5b50565b61305f816128f0565b811461306a57600080fd5b50565b6130768161293c565b811461308157600080fd5b5056fea2646970667358221220a0d45576e862c8ec3a122afbafafd9034c731a49c3c02b9cc957f5c0d75f278564736f6c63430008010033",
  "immutableReferences": {},
  "source": "//SPDX-License-Identifier: MIT\npragma solidity ^0.8.1;\nimport \"@openzeppelin/contracts/token/ERC721/extensions/ERC721URIStorage.sol\";\nimport \"@openzeppelin/contracts/utils/Counters.sol\";\nimport \"@openzeppelin/contracts/access/Ownable.sol\";\n\ncontract Land is ERC721URIStorage,Ownable {\n    using Counters for Counters.Counter;\n    mapping(uint256=>bool) public purchased;\n    mapping(uint256=>address[]) history;\n    constructor() ERC721(\"Land\", \"LND\")  {\n        \n    }\n\n    function purchase(uint256 _tokenId,string memory _uri) payable public {\n        //uint256 price=0.001 ether;\n       // require(msg.value>=price);\n        //_tokenIds.increment();\n        //require(_tokenIds.current()<=2);\n        //uint256 newItemId = _tokenIds.current();\n        payable(owner()).transfer(msg.value);\n        _mint(msg.sender, _tokenId); \n        _setTokenURI(_tokenId, _uri);   \n        purchased[_tokenId]=true;\n           \n    }      \n}",
  "sourcePath": "/Users/princekurian/Desktop/Land/contracts/Land.sol",
  "compiler": {
    "name": "solc",
    "version": "0.8.1+commit.df193b15.Emscripten.clang"
  },
  "schemaVersion": "3.4.4",
  "updatedAt": "2022-06-03T18:04:35.878Z",
  "networkType": "ethereum",
  "devdoc": {
    "kind": "dev",
    "methods": {
      "approve(address,uint256)": {
        "details": "See {IERC721-approve}."
      },
      "balanceOf(address)": {
        "details": "See {IERC721-balanceOf}."
      },
      "getApproved(uint256)": {
        "details": "See {IERC721-getApproved}."
      },
      "isApprovedForAll(address,address)": {
        "details": "See {IERC721-isApprovedForAll}."
      },
      "name()": {
        "details": "See {IERC721Metadata-name}."
      },
      "owner()": {
        "details": "Returns the address of the current owner."
      },
      "ownerOf(uint256)": {
        "details": "See {IERC721-ownerOf}."
      },
      "renounceOwnership()": {
        "details": "Leaves the contract without owner. It will not be possible to call `onlyOwner` functions anymore. Can only be called by the current owner. NOTE: Renouncing ownership will leave the contract without an owner, thereby removing any functionality that is only available to the owner."
      },
      "safeTransferFrom(address,address,uint256)": {
        "details": "See {IERC721-safeTransferFrom}."
      },
      "safeTransferFrom(address,address,uint256,bytes)": {
        "details": "See {IERC721-safeTransferFrom}."
      },
      "setApprovalForAll(address,bool)": {
        "details": "See {IERC721-setApprovalForAll}."
      },
      "supportsInterface(bytes4)": {
        "details": "See {IERC165-supportsInterface}."
      },
      "symbol()": {
        "details": "See {IERC721Metadata-symbol}."
      },
      "tokenURI(uint256)": {
        "details": "See {IERC721Metadata-tokenURI}."
      },
      "transferFrom(address,address,uint256)": {
        "details": "See {IERC721-transferFrom}."
      },
      "transferOwnership(address)": {
        "details": "Transfers ownership of the contract to a new account (`newOwner`). Can only be called by the current owner."
      }
    },
    "version": 1
  },
  "userdoc": {
    "kind": "user",
    "methods": {},
    "version": 1
  }
}