{
  "contractName": "Land",
  "abi": [
    {
      "inputs": [],
      "stateMutability": "nonpayable",
      "type": "constructor"
    },
    {
      "anonymous": false,
      "inputs": [
        {
          "indexed": true,
          "internalType": "address",
          "name": "owner",
          "type": "address"
        },
        {
          "indexed": true,
          "internalType": "address",
          "name": "approved",
          "type": "address"
        },
        {
          "indexed": true,
          "internalType": "uint256",
          "name": "tokenId",
          "type": "uint256"
        }
      ],
      "name": "Approval",
      "type": "event"
    },
    {
      "anonymous": false,
      "inputs": [
        {
          "indexed": true,
          "internalType": "address",
          "name": "owner",
          "type": "address"
        },
        {
          "indexed": true,
          "internalType": "address",
          "name": "operator",
          "type": "address"
        },
        {
          "indexed": false,
          "internalType": "bool",
          "name": "approved",
          "type": "bool"
        }
      ],
      "name": "ApprovalForAll",
      "type": "event"
    },
    {
      "anonymous": false,
      "inputs": [
        {
          "indexed": true,
          "internalType": "address",
          "name": "previousOwner",
          "type": "address"
        },
        {
          "indexed": true,
          "internalType": "address",
          "name": "newOwner",
          "type": "address"
        }
      ],
      "name": "OwnershipTransferred",
      "type": "event"
    },
    {
      "anonymous": false,
      "inputs": [
        {
          "indexed": true,
          "internalType": "address",
          "name": "from",
          "type": "address"
        },
        {
          "indexed": true,
          "internalType": "address",
          "name": "to",
          "type": "address"
        },
        {
          "indexed": true,
          "internalType": "uint256",
          "name": "tokenId",
          "type": "uint256"
        }
      ],
      "name": "Transfer",
      "type": "event"
    },
    {
      "inputs": [
        {
          "internalType": "address",
          "name": "to",
          "type": "address"
        },
        {
          "internalType": "uint256",
          "name": "tokenId",
          "type": "uint256"
        }
      ],
      "name": "approve",
      "outputs": [],
      "stateMutability": "nonpayable",
      "type": "function"
    },
    {
      "inputs": [
        {
          "internalType": "address",
          "name": "owner",
          "type": "address"
        }
      ],
      "name": "balanceOf",
      "outputs": [
        {
          "internalType": "uint256",
          "name": "",
          "type": "uint256"
        }
      ],
      "stateMutability": "view",
      "type": "function",
      "constant": true
    },
    {
      "inputs": [
        {
          "internalType": "uint256",
          "name": "tokenId",
          "type": "uint256"
        }
      ],
      "name": "getApproved",
      "outputs": [
        {
          "internalType": "address",
          "name": "",
          "type": "address"
        }
      ],
      "stateMutability": "view",
      "type": "function",
      "constant": true
    },
    {
      "inputs": [
        {
          "internalType": "address",
          "name": "owner",
          "type": "address"
        },
        {
          "internalType": "address",
          "name": "operator",
          "type": "address"
        }
      ],
      "name": "isApprovedForAll",
      "outputs": [
        {
          "internalType": "bool",
          "name": "",
          "type": "bool"
        }
      ],
      "stateMutability": "view",
      "type": "function",
      "constant": true
    },
    {
      "inputs": [],
      "name": "name",
      "outputs": [
        {
          "internalType": "string",
          "name": "",
          "type": "string"
        }
      ],
      "stateMutability": "view",
      "type": "function",
      "constant": true
    },
    {
      "inputs": [],
      "name": "owner",
      "outputs": [
        {
          "internalType": "address",
          "name": "",
          "type": "address"
        }
      ],
      "stateMutability": "view",
      "type": "function",
      "constant": true
    },
    {
      "inputs": [
        {
          "internalType": "uint256",
          "name": "tokenId",
          "type": "uint256"
        }
      ],
      "name": "ownerOf",
      "outputs": [
        {
          "internalType": "address",
          "name": "",
          "type": "address"
        }
      ],
      "stateMutability": "view",
      "type": "function",
      "constant": true
    },
    {
      "inputs": [],
      "name": "renounceOwnership",
      "outputs": [],
      "stateMutability": "nonpayable",
      "type": "function"
    },
    {
      "inputs": [
        {
          "internalType": "address",
          "name": "from",
          "type": "address"
        },
        {
          "internalType": "address",
          "name": "to",
          "type": "address"
        },
        {
          "internalType": "uint256",
          "name": "tokenId",
          "type": "uint256"
        }
      ],
      "name": "safeTransferFrom",
      "outputs": [],
      "stateMutability": "nonpayable",
      "type": "function"
    },
    {
      "inputs": [
        {
          "internalType": "address",
          "name": "from",
          "type": "address"
        },
        {
          "internalType": "address",
          "name": "to",
          "type": "address"
        },
        {
          "internalType": "uint256",
          "name": "tokenId",
          "type": "uint256"
        },
        {
          "internalType": "bytes",
          "name": "_data",
          "type": "bytes"
        }
      ],
      "name": "safeTransferFrom",
      "outputs": [],
      "stateMutability": "nonpayable",
      "type": "function"
    },
    {
      "inputs": [
        {
          "internalType": "address",
          "name": "operator",
          "type": "address"
        },
        {
          "internalType": "bool",
          "name": "approved",
          "type": "bool"
        }
      ],
      "name": "setApprovalForAll",
      "outputs": [],
      "stateMutability": "nonpayable",
      "type": "function"
    },
    {
      "inputs": [
        {
          "internalType": "bytes4",
          "name": "interfaceId",
          "type": "bytes4"
        }
      ],
      "name": "supportsInterface",
      "outputs": [
        {
          "internalType": "bool",
          "name": "",
          "type": "bool"
        }
      ],
      "stateMutability": "view",
      "type": "function",
      "constant": true
    },
    {
      "inputs": [],
      "name": "symbol",
      "outputs": [
        {
          "internalType": "string",
          "name": "",
          "type": "string"
        }
      ],
      "stateMutability": "view",
      "type": "function",
      "constant": true
    },
    {
      "inputs": [
        {
          "internalType": "uint256",
          "name": "tokenId",
          "type": "uint256"
        }
      ],
      "name": "tokenURI",
      "outputs": [
        {
          "internalType": "string",
          "name": "",
          "type": "string"
        }
      ],
      "stateMutability": "view",
      "type": "function",
      "constant": true
    },
    {
      "inputs": [
        {
          "internalType": "address",
          "name": "from",
          "type": "address"
        },
        {
          "internalType": "address",
          "name": "to",
          "type": "address"
        },
        {
          "internalType": "uint256",
          "name": "tokenId",
          "type": "uint256"
        }
      ],
      "name": "transferFrom",
      "outputs": [],
      "stateMutability": "nonpayable",
      "type": "function"
    },
    {
      "inputs": [
        {
          "internalType": "address",
          "name": "newOwner",
          "type": "address"
        }
      ],
      "name": "transferOwnership",
      "outputs": [],
      "stateMutability": "nonpayable",
      "type": "function"
    },
    {
      "inputs": [
        {
          "internalType": "uint256",
          "name": "_tokenId",
          "type": "uint256"
        },
        {
          "internalType": "string",
          "name": "_uri",
          "type": "string"
        }
      ],
      "name": "purchase",
      "outputs": [],
      "stateMutability": "payable",
      "type": "function",
      "payable": true
    }
  ],
  "bytecode": "0x60806040523480156200001157600080fd5b506040518060400160405280600481526020017f4c616e64000000000000000000000000000000000000000000000000000000008152506040518060400160405280600381526020017f4c4e440000000000000000000000000000000000000000000000000000000000815250816000908051906020019062000096929190620001a6565b508060019080519060200190620000af929190620001a6565b505050620000d2620000c6620000d860201b60201c565b620000e060201b60201c565b620002bb565b600033905090565b6000600760009054906101000a900473ffffffffffffffffffffffffffffffffffffffff16905081600760006101000a81548173ffffffffffffffffffffffffffffffffffffffff021916908373ffffffffffffffffffffffffffffffffffffffff1602179055508173ffffffffffffffffffffffffffffffffffffffff168173ffffffffffffffffffffffffffffffffffffffff167f8be0079c531659141344cd1fd0a4f28419497f9722a3daafe3b4186f6b6457e060405160405180910390a35050565b828054620001b49062000256565b90600052602060002090601f016020900481019282620001d8576000855562000224565b82601f10620001f357805160ff191683800117855562000224565b8280016001018555821562000224579182015b828111156200022357825182559160200191906001019062000206565b5b50905062000233919062000237565b5090565b5b808211156200025257600081600090555060010162000238565b5090565b600060028204905060018216806200026f57607f821691505b602082108114156200028657620002856200028c565b5b50919050565b7f4e487b7100000000000000000000000000000000000000000000000000000000600052602260045260246000fd5b612f4380620002cb6000396000f3fe6080604052600436106100fe5760003560e01c8063715018a611610095578063b88d4fde11610064578063b88d4fde14610333578063c87b56dd1461035c578063da9581b614610399578063e985e9c5146103b5578063f2fde38b146103f2576100fe565b8063715018a61461029d5780638da5cb5b146102b457806395d89b41146102df578063a22cb4651461030a576100fe565b806323b872dd116100d157806323b872dd146101d157806342842e0e146101fa5780636352211e1461022357806370a0823114610260576100fe565b806301ffc9a71461010357806306fdde0314610140578063081812fc1461016b578063095ea7b3146101a8575b600080fd5b34801561010f57600080fd5b5061012a60048036038101906101259190611f9d565b61041b565b604051610137919061285b565b60405180910390f35b34801561014c57600080fd5b506101556104fd565b6040516101629190612876565b60405180910390f35b34801561017757600080fd5b50610192600480360381019061018d9190611fef565b61058f565b60405161019f91906127f4565b60405180910390f35b3480156101b457600080fd5b506101cf60048036038101906101ca9190611f61565b610614565b005b3480156101dd57600080fd5b506101f860048036038101906101f39190611e5b565b61072c565b005b34801561020657600080fd5b50610221600480360381019061021c9190611e5b565b61078c565b005b34801561022f57600080fd5b5061024a60048036038101906102459190611fef565b6107ac565b60405161025791906127f4565b60405180910390f35b34801561026c57600080fd5b5061028760048036038101906102829190611df6565b61085e565b6040516102949190612ad8565b60405180910390f35b3480156102a957600080fd5b506102b2610916565b005b3480156102c057600080fd5b506102c961099e565b6040516102d691906127f4565b60405180910390f35b3480156102eb57600080fd5b506102f46109c8565b6040516103019190612876565b60405180910390f35b34801561031657600080fd5b50610331600480360381019061032c9190611f25565b610a5a565b005b34801561033f57600080fd5b5061035a60048036038101906103559190611eaa565b610a70565b005b34801561036857600080fd5b50610383600480360381019061037e9190611fef565b610ad2565b6040516103909190612876565b60405180910390f35b6103b360048036038101906103ae9190612018565b610c24565b005b3480156103c157600080fd5b506103dc60048036038101906103d79190611e1f565b610c8a565b6040516103e9919061285b565b60405180910390f35b3480156103fe57600080fd5b5061041960048036038101906104149190611df6565b610d1e565b005b60007f80ac58cd000000000000000000000000000000000000000000000000000000007bffffffffffffffffffffffffffffffffffffffffffffffffffffffff1916827bffffffffffffffffffffffffffffffffffffffffffffffffffffffff191614806104e657507f5b5e139f000000000000000000000000000000000000000000000000000000007bffffffffffffffffffffffffffffffffffffffffffffffffffffffff1916827bffffffffffffffffffffffffffffffffffffffffffffffffffffffff1916145b806104f657506104f582610e16565b5b9050919050565b60606000805461050c90612d38565b80601f016020809104026020016040519081016040528092919081815260200182805461053890612d38565b80156105855780601f1061055a57610100808354040283529160200191610585565b820191906000526020600020905b81548152906001019060200180831161056857829003601f168201915b5050505050905090565b600061059a82610e80565b6105d9576040517f08c379a00000000000000000000000000000000000000000000000000000000081526004016105d090612a38565b60405180910390fd5b6004600083815260200190815260200160002060009054906101000a900473ffffffffffffffffffffffffffffffffffffffff169050919050565b600061061f826107ac565b90508073ffffffffffffffffffffffffffffffffffffffff168373ffffffffffffffffffffffffffffffffffffffff161415610690576040517f08c379a000000000000000000000000000000000000000000000000000000000815260040161068790612a98565b60405180910390fd5b8073ffffffffffffffffffffffffffffffffffffffff166106af610eec565b73ffffffffffffffffffffffffffffffffffffffff1614806106de57506106dd816106d8610eec565b610c8a565b5b61071d576040517f08c379a000000000000000000000000000000000000000000000000000000000815260040161071490612978565b60405180910390fd5b6107278383610ef4565b505050565b61073d610737610eec565b82610fad565b61077c576040517f08c379a000000000000000000000000000000000000000000000000000000000815260040161077390612ab8565b60405180910390fd5b61078783838361108b565b505050565b6107a783838360405180602001604052806000815250610a70565b505050565b6000806002600084815260200190815260200160002060009054906101000a900473ffffffffffffffffffffffffffffffffffffffff169050600073ffffffffffffffffffffffffffffffffffffffff168173ffffffffffffffffffffffffffffffffffffffff161415610855576040517f08c379a000000000000000000000000000000000000000000000000000000000815260040161084c906129b8565b60405180910390fd5b80915050919050565b60008073ffffffffffffffffffffffffffffffffffffffff168273ffffffffffffffffffffffffffffffffffffffff1614156108cf576040517f08c379a00000000000000000000000000000000000000000000000000000000081526004016108c690612998565b60405180910390fd5b600360008373ffffffffffffffffffffffffffffffffffffffff1673ffffffffffffffffffffffffffffffffffffffff168152602001908152602001600020549050919050565b61091e610eec565b73ffffffffffffffffffffffffffffffffffffffff1661093c61099e565b73ffffffffffffffffffffffffffffffffffffffff1614610992576040517f08c379a000000000000000000000000000000000000000000000000000000000815260040161098990612a58565b60405180910390fd5b61099c60006112f2565b565b6000600760009054906101000a900473ffffffffffffffffffffffffffffffffffffffff16905090565b6060600180546109d790612d38565b80601f0160208091040260200160405190810160405280929190818152602001828054610a0390612d38565b8015610a505780601f10610a2557610100808354040283529160200191610a50565b820191906000526020600020905b815481529060010190602001808311610a3357829003601f168201915b5050505050905090565b610a6c610a65610eec565b83836113b8565b5050565b610a81610a7b610eec565b83610fad565b610ac0576040517f08c379a0000000000000000000000000000000000000000000000000000000008152600401610ab790612ab8565b60405180910390fd5b610acc84848484611525565b50505050565b6060610add82610e80565b610b1c576040517f08c379a0000000000000000000000000000000000000000000000000000000008152600401610b1390612a18565b60405180910390fd5b6000600660008481526020019081526020016000208054610b3c90612d38565b80601f0160208091040260200160405190810160405280929190818152602001828054610b6890612d38565b8015610bb55780601f10610b8a57610100808354040283529160200191610bb5565b820191906000526020600020905b815481529060010190602001808311610b9857829003601f168201915b505050505090506000610bc6611581565b9050600081511415610bdc578192505050610c1f565b600082511115610c11578082604051602001610bf99291906127d0565b60405160208183030381529060405292505050610c1f565b610c1a84611598565b925050505b919050565b610c2c61099e565b73ffffffffffffffffffffffffffffffffffffffff166108fc349081150290604051600060405180830381858888f19350505050158015610c71573d6000803e3d6000fd5b50610c7c338361163f565b610c868282611819565b5050565b6000600560008473ffffffffffffffffffffffffffffffffffffffff1673ffffffffffffffffffffffffffffffffffffffff16815260200190815260200160002060008373ffffffffffffffffffffffffffffffffffffffff1673ffffffffffffffffffffffffffffffffffffffff16815260200190815260200160002060009054906101000a900460ff16905092915050565b610d26610eec565b73ffffffffffffffffffffffffffffffffffffffff16610d4461099e565b73ffffffffffffffffffffffffffffffffffffffff1614610d9a576040517f08c379a0000000000000000000000000000000000000000000000000000000008152600401610d9190612a58565b60405180910390fd5b600073ffffffffffffffffffffffffffffffffffffffff168173ffffffffffffffffffffffffffffffffffffffff161415610e0a576040517f08c379a0000000000000000000000000000000000000000000000000000000008152600401610e01906128b8565b60405180910390fd5b610e13816112f2565b50565b60007f01ffc9a7000000000000000000000000000000000000000000000000000000007bffffffffffffffffffffffffffffffffffffffffffffffffffffffff1916827bffffffffffffffffffffffffffffffffffffffffffffffffffffffff1916149050919050565b60008073ffffffffffffffffffffffffffffffffffffffff166002600084815260200190815260200160002060009054906101000a900473ffffffffffffffffffffffffffffffffffffffff1673ffffffffffffffffffffffffffffffffffffffff1614159050919050565b600033905090565b816004600083815260200190815260200160002060006101000a81548173ffffffffffffffffffffffffffffffffffffffff021916908373ffffffffffffffffffffffffffffffffffffffff160217905550808273ffffffffffffffffffffffffffffffffffffffff16610f67836107ac565b73ffffffffffffffffffffffffffffffffffffffff167f8c5be1e5ebec7d5bd14f71427d1e84f3dd0314c0f7b2291e5b200ac8c7c3b92560405160405180910390a45050565b6000610fb882610e80565b610ff7576040517f08c379a0000000000000000000000000000000000000000000000000000000008152600401610fee90612958565b60405180910390fd5b6000611002836107ac565b90508073ffffffffffffffffffffffffffffffffffffffff168473ffffffffffffffffffffffffffffffffffffffff16148061107157508373ffffffffffffffffffffffffffffffffffffffff166110598461058f565b73ffffffffffffffffffffffffffffffffffffffff16145b8061108257506110818185610c8a565b5b91505092915050565b8273ffffffffffffffffffffffffffffffffffffffff166110ab826107ac565b73ffffffffffffffffffffffffffffffffffffffff1614611101576040517f08c379a00000000000000000000000000000000000000000000000000000000081526004016110f8906128d8565b60405180910390fd5b600073ffffffffffffffffffffffffffffffffffffffff168273ffffffffffffffffffffffffffffffffffffffff161415611171576040517f08c379a000000000000000000000000000000000000000000000000000000000815260040161116890612918565b60405180910390fd5b61117c83838361188d565b611187600082610ef4565b6001600360008573ffffffffffffffffffffffffffffffffffffffff1673ffffffffffffffffffffffffffffffffffffffff16815260200190815260200160002060008282546111d79190612c4e565b925050819055506001600360008473ffffffffffffffffffffffffffffffffffffffff1673ffffffffffffffffffffffffffffffffffffffff168152602001908152602001600020600082825461122e9190612bc7565b92505081905550816002600083815260200190815260200160002060006101000a81548173ffffffffffffffffffffffffffffffffffffffff021916908373ffffffffffffffffffffffffffffffffffffffff160217905550808273ffffffffffffffffffffffffffffffffffffffff168473ffffffffffffffffffffffffffffffffffffffff167fddf252ad1be2c89b69c2b068fc378daa952ba7f163c4a11628f55a4df523b3ef60405160405180910390a46112ed838383611892565b505050565b6000600760009054906101000a900473ffffffffffffffffffffffffffffffffffffffff16905081600760006101000a81548173ffffffffffffffffffffffffffffffffffffffff021916908373ffffffffffffffffffffffffffffffffffffffff1602179055508173ffffffffffffffffffffffffffffffffffffffff168173ffffffffffffffffffffffffffffffffffffffff167f8be0079c531659141344cd1fd0a4f28419497f9722a3daafe3b4186f6b6457e060405160405180910390a35050565b8173ffffffffffffffffffffffffffffffffffffffff168373ffffffffffffffffffffffffffffffffffffffff161415611427576040517f08c379a000000000000000000000000000000000000000000000000000000000815260040161141e90612938565b60405180910390fd5b80600560008573ffffffffffffffffffffffffffffffffffffffff1673ffffffffffffffffffffffffffffffffffffffff16815260200190815260200160002060008473ffffffffffffffffffffffffffffffffffffffff1673ffffffffffffffffffffffffffffffffffffffff16815260200190815260200160002060006101000a81548160ff0219169083151502179055508173ffffffffffffffffffffffffffffffffffffffff168373ffffffffffffffffffffffffffffffffffffffff167f17307eab39ab6107e8899845ad3d59bd9653f200f220920489ca2b5937696c3183604051611518919061285b565b60405180910390a3505050565b61153084848461108b565b61153c84848484611897565b61157b576040517f08c379a000000000000000000000000000000000000000000000000000000000815260040161157290612898565b60405180910390fd5b50505050565b606060405180602001604052806000815250905090565b60606115a382610e80565b6115e2576040517f08c379a00000000000000000000000000000000000000000000000000000000081526004016115d990612a78565b60405180910390fd5b60006115ec611581565b9050600081511161160c5760405180602001604052806000815250611637565b8061161684611a2e565b6040516020016116279291906127d0565b6040516020818303038152906040525b915050919050565b600073ffffffffffffffffffffffffffffffffffffffff168273ffffffffffffffffffffffffffffffffffffffff1614156116af576040517f08c379a00000000000000000000000000000000000000000000000000000000081526004016116a6906129f8565b60405180910390fd5b6116b881610e80565b156116f8576040517f08c379a00000000000000000000000000000000000000000000000000000000081526004016116ef906128f8565b60405180910390fd5b6117046000838361188d565b6001600360008473ffffffffffffffffffffffffffffffffffffffff1673ffffffffffffffffffffffffffffffffffffffff16815260200190815260200160002060008282546117549190612bc7565b92505081905550816002600083815260200190815260200160002060006101000a81548173ffffffffffffffffffffffffffffffffffffffff021916908373ffffffffffffffffffffffffffffffffffffffff160217905550808273ffffffffffffffffffffffffffffffffffffffff16600073ffffffffffffffffffffffffffffffffffffffff167fddf252ad1be2c89b69c2b068fc378daa952ba7f163c4a11628f55a4df523b3ef60405160405180910390a461181560008383611892565b5050565b61182282610e80565b611861576040517f08c379a0000000000000000000000000000000000000000000000000000000008152600401611858906129d8565b60405180910390fd5b80600660008481526020019081526020016000209080519060200190611888929190611c1a565b505050565b505050565b505050565b60006118b88473ffffffffffffffffffffffffffffffffffffffff16611bdb565b15611a21578373ffffffffffffffffffffffffffffffffffffffff1663150b7a026118e1610eec565b8786866040518563ffffffff1660e01b8152600401611903949392919061280f565b602060405180830381600087803b15801561191d57600080fd5b505af192505050801561194e57506040513d601f19601f8201168201806040525081019061194b9190611fc6565b60015b6119d1573d806000811461197e576040519150601f19603f3d011682016040523d82523d6000602084013e611983565b606091505b506000815114156119c9576040517f08c379a00000000000000000000000000000000000000000000000000000000081526004016119c090612898565b60405180910390fd5b805181602001fd5b63150b7a0260e01b7bffffffffffffffffffffffffffffffffffffffffffffffffffffffff1916817bffffffffffffffffffffffffffffffffffffffffffffffffffffffff191614915050611a26565b600190505b949350505050565b60606000821415611a76576040518060400160405280600181526020017f30000000000000000000000000000000000000000000000000000000000000008152509050611bd6565b600082905060005b60008214611aa8578080611a9190612d6a565b915050600a82611aa19190612c1d565b9150611a7e565b60008167ffffffffffffffff811115611aea577f4e487b7100000000000000000000000000000000000000000000000000000000600052604160045260246000fd5b6040519080825280601f01601f191660200182016040528015611b1c5781602001600182028036833780820191505090505b5090505b60008514611bcf57600182611b359190612c4e565b9150600a85611b449190612db3565b6030611b509190612bc7565b60f81b818381518110611b8c577f4e487b7100000000000000000000000000000000000000000000000000000000600052603260045260246000fd5b60200101907effffffffffffffffffffffffffffffffffffffffffffffffffffffffffffff1916908160001a905350600a85611bc89190612c1d565b9450611b20565b8093505050505b919050565b6000808273ffffffffffffffffffffffffffffffffffffffff16803b806020016040519081016040528181526000908060200190933c51119050919050565b828054611c2690612d38565b90600052602060002090601f016020900481019282611c485760008555611c8f565b82601f10611c6157805160ff1916838001178555611c8f565b82800160010185558215611c8f579182015b82811115611c8e578251825591602001919060010190611c73565b5b509050611c9c9190611ca0565b5090565b5b80821115611cb9576000816000905550600101611ca1565b5090565b6000611cd0611ccb84612b24565b612af3565b905082815260208101848484011115611ce857600080fd5b611cf3848285612cf6565b509392505050565b6000611d0e611d0984612b54565b612af3565b905082815260208101848484011115611d2657600080fd5b611d31848285612cf6565b509392505050565b600081359050611d4881612eb1565b92915050565b600081359050611d5d81612ec8565b92915050565b600081359050611d7281612edf565b92915050565b600081519050611d8781612edf565b92915050565b600082601f830112611d9e57600080fd5b8135611dae848260208601611cbd565b91505092915050565b600082601f830112611dc857600080fd5b8135611dd8848260208601611cfb565b91505092915050565b600081359050611df081612ef6565b92915050565b600060208284031215611e0857600080fd5b6000611e1684828501611d39565b91505092915050565b60008060408385031215611e3257600080fd5b6000611e4085828601611d39565b9250506020611e5185828601611d39565b9150509250929050565b600080600060608486031215611e7057600080fd5b6000611e7e86828701611d39565b9350506020611e8f86828701611d39565b9250506040611ea086828701611de1565b9150509250925092565b60008060008060808587031215611ec057600080fd5b6000611ece87828801611d39565b9450506020611edf87828801611d39565b9350506040611ef087828801611de1565b925050606085013567ffffffffffffffff811115611f0d57600080fd5b611f1987828801611d8d565b91505092959194509250565b60008060408385031215611f3857600080fd5b6000611f4685828601611d39565b9250506020611f5785828601611d4e565b9150509250929050565b60008060408385031215611f7457600080fd5b6000611f8285828601611d39565b9250506020611f9385828601611de1565b9150509250929050565b600060208284031215611faf57600080fd5b6000611fbd84828501611d63565b91505092915050565b600060208284031215611fd857600080fd5b6000611fe684828501611d78565b91505092915050565b60006020828403121561200157600080fd5b600061200f84828501611de1565b91505092915050565b6000806040838503121561202b57600080fd5b600061203985828601611de1565b925050602083013567ffffffffffffffff81111561205657600080fd5b61206285828601611db7565b9150509250929050565b61207581612c82565b82525050565b61208481612c94565b82525050565b600061209582612b84565b61209f8185612b9a565b93506120af818560208601612d05565b6120b881612ea0565b840191505092915050565b60006120ce82612b8f565b6120d88185612bab565b93506120e8818560208601612d05565b6120f181612ea0565b840191505092915050565b600061210782612b8f565b6121118185612bbc565b9350612121818560208601612d05565b80840191505092915050565b600061213a603283612bab565b91507f4552433732313a207472616e7366657220746f206e6f6e20455243373231526560008301527f63656976657220696d706c656d656e74657200000000000000000000000000006020830152604082019050919050565b60006121a0602683612bab565b91507f4f776e61626c653a206e6577206f776e657220697320746865207a65726f206160008301527f64647265737300000000000000000000000000000000000000000000000000006020830152604082019050919050565b6000612206602583612bab565b91507f4552433732313a207472616e736665722066726f6d20696e636f72726563742060008301527f6f776e65720000000000000000000000000000000000000000000000000000006020830152604082019050919050565b600061226c601c83612bab565b91507f4552433732313a20746f6b656e20616c7265616479206d696e746564000000006000830152602082019050919050565b60006122ac602483612bab565b91507f4552433732313a207472616e7366657220746f20746865207a65726f2061646460008301527f72657373000000000000000000000000000000000000000000000000000000006020830152604082019050919050565b6000612312601983612bab565b91507f4552433732313a20617070726f766520746f2063616c6c6572000000000000006000830152602082019050919050565b6000612352602c83612bab565b91507f4552433732313a206f70657261746f7220717565727920666f72206e6f6e657860008301527f697374656e7420746f6b656e00000000000000000000000000000000000000006020830152604082019050919050565b60006123b8603883612bab565b91507f4552433732313a20617070726f76652063616c6c6572206973206e6f74206f7760008301527f6e6572206e6f7220617070726f76656420666f7220616c6c00000000000000006020830152604082019050919050565b600061241e602a83612bab565b91507f4552433732313a2062616c616e636520717565727920666f7220746865207a6560008301527f726f2061646472657373000000000000000000000000000000000000000000006020830152604082019050919050565b6000612484602983612bab565b91507f4552433732313a206f776e657220717565727920666f72206e6f6e657869737460008301527f656e7420746f6b656e00000000000000000000000000000000000000000000006020830152604082019050919050565b60006124ea602e83612bab565b91507f45524337323155524953746f726167653a2055524920736574206f66206e6f6e60008301527f6578697374656e7420746f6b656e0000000000000000000000000000000000006020830152604082019050919050565b6000612550602083612bab565b91507f4552433732313a206d696e7420746f20746865207a65726f20616464726573736000830152602082019050919050565b6000612590603183612bab565b91507f45524337323155524953746f726167653a2055524920717565727920666f722060008301527f6e6f6e6578697374656e7420746f6b656e0000000000000000000000000000006020830152604082019050919050565b60006125f6602c83612bab565b91507f4552433732313a20617070726f76656420717565727920666f72206e6f6e657860008301527f697374656e7420746f6b656e00000000000000000000000000000000000000006020830152604082019050919050565b600061265c602083612bab565b91507f4f776e61626c653a2063616c6c6572206973206e6f7420746865206f776e65726000830152602082019050919050565b600061269c602f83612bab565b91507f4552433732314d657461646174613a2055524920717565727920666f72206e6f60008301527f6e6578697374656e7420746f6b656e00000000000000000000000000000000006020830152604082019050919050565b6000612702602183612bab565b91507f4552433732313a20617070726f76616c20746f2063757272656e74206f776e6560008301527f72000000000000000000000000000000000000000000000000000000000000006020830152604082019050919050565b6000612768603183612bab565b91507f4552433732313a207472616e736665722063616c6c6572206973206e6f74206f60008301527f776e6572206e6f7220617070726f7665640000000000000000000000000000006020830152604082019050919050565b6127ca81612cec565b82525050565b60006127dc82856120fc565b91506127e882846120fc565b91508190509392505050565b6000602082019050612809600083018461206c565b92915050565b6000608082019050612824600083018761206c565b612831602083018661206c565b61283e60408301856127c1565b8181036060830152612850818461208a565b905095945050505050565b6000602082019050612870600083018461207b565b92915050565b6000602082019050818103600083015261289081846120c3565b905092915050565b600060208201905081810360008301526128b18161212d565b9050919050565b600060208201905081810360008301526128d181612193565b9050919050565b600060208201905081810360008301526128f1816121f9565b9050919050565b600060208201905081810360008301526129118161225f565b9050919050565b600060208201905081810360008301526129318161229f565b9050919050565b6000602082019050818103600083015261295181612305565b9050919050565b6000602082019050818103600083015261297181612345565b9050919050565b60006020820190508181036000830152612991816123ab565b9050919050565b600060208201905081810360008301526129b181612411565b9050919050565b600060208201905081810360008301526129d181612477565b9050919050565b600060208201905081810360008301526129f1816124dd565b9050919050565b60006020820190508181036000830152612a1181612543565b9050919050565b60006020820190508181036000830152612a3181612583565b9050919050565b60006020820190508181036000830152612a51816125e9565b9050919050565b60006020820190508181036000830152612a718161264f565b9050919050565b60006020820190508181036000830152612a918161268f565b9050919050565b60006020820190508181036000830152612ab1816126f5565b9050919050565b60006020820190508181036000830152612ad18161275b565b9050919050565b6000602082019050612aed60008301846127c1565b92915050565b6000604051905081810181811067ffffffffffffffff82111715612b1a57612b19612e71565b5b8060405250919050565b600067ffffffffffffffff821115612b3f57612b3e612e71565b5b601f19601f8301169050602081019050919050565b600067ffffffffffffffff821115612b6f57612b6e612e71565b5b601f19601f8301169050602081019050919050565b600081519050919050565b600081519050919050565b600082825260208201905092915050565b600082825260208201905092915050565b600081905092915050565b6000612bd282612cec565b9150612bdd83612cec565b9250827fffffffffffffffffffffffffffffffffffffffffffffffffffffffffffffffff03821115612c1257612c11612de4565b5b828201905092915050565b6000612c2882612cec565b9150612c3383612cec565b925082612c4357612c42612e13565b5b828204905092915050565b6000612c5982612cec565b9150612c6483612cec565b925082821015612c7757612c76612de4565b5b828203905092915050565b6000612c8d82612ccc565b9050919050565b60008115159050919050565b60007fffffffff0000000000000000000000000000000000000000000000000000000082169050919050565b600073ffffffffffffffffffffffffffffffffffffffff82169050919050565b6000819050919050565b82818337600083830152505050565b60005b83811015612d23578082015181840152602081019050612d08565b83811115612d32576000848401525b50505050565b60006002820490506001821680612d5057607f821691505b60208210811415612d6457612d63612e42565b5b50919050565b6000612d7582612cec565b91507fffffffffffffffffffffffffffffffffffffffffffffffffffffffffffffffff821415612da857612da7612de4565b5b600182019050919050565b6000612dbe82612cec565b9150612dc983612cec565b925082612dd957612dd8612e13565b5b828206905092915050565b7f4e487b7100000000000000000000000000000000000000000000000000000000600052601160045260246000fd5b7f4e487b7100000000000000000000000000000000000000000000000000000000600052601260045260246000fd5b7f4e487b7100000000000000000000000000000000000000000000000000000000600052602260045260246000fd5b7f4e487b7100000000000000000000000000000000000000000000000000000000600052604160045260246000fd5b6000601f19601f8301169050919050565b612eba81612c82565b8114612ec557600080fd5b50565b612ed181612c94565b8114612edc57600080fd5b50565b612ee881612ca0565b8114612ef357600080fd5b50565b612eff81612cec565b8114612f0a57600080fd5b5056fea26469706673582212200e185575021eb30f791b057611ff0dc75ab97c9fbf7f9fdaae11c5797f8eda5264736f6c63430008000033",
  "immutableReferences": {},
  "source": "//SPDX-License-Identifier: MIT\npragma solidity ^0.8.0;\nimport \"@openzeppelin/contracts/token/ERC721/extensions/ERC721URIStorage.sol\";\nimport \"@openzeppelin/contracts/utils/Counters.sol\";\nimport \"@openzeppelin/contracts/access/Ownable.sol\";\n\ncontract Land is ERC721URIStorage,Ownable {\n    using Counters for Counters.Counter;\n    constructor() ERC721(\"Land\", \"LND\")  {\n        \n    }\n\n    function purchase(uint256 _tokenId,string memory _uri) payable public {\n        //uint256 price=0.001 ether;\n       // require(msg.value>=price);\n        //_tokenIds.increment();\n        //require(_tokenIds.current()<=2);\n        //uint256 newItemId = _tokenIds.current();\n        payable(owner()).transfer(msg.value);\n        _mint(msg.sender, _tokenId); \n        _setTokenURI(_tokenId, _uri);       \n    }      \n}",
  "sourcePath": "/Users/princekurian/Desktop/Land/contracts/Land.sol",
  "compiler": {
    "name": "solc",
    "version": "0.8.0+commit.c7dfd78e.Emscripten.clang"
  },
  "schemaVersion": "3.4.4",
  "updatedAt": "2022-05-23T16:49:29.078Z",
  "networkType": "ethereum",
  "devdoc": {
    "kind": "dev",
    "methods": {
      "approve(address,uint256)": {
        "details": "See {IERC721-approve}."
      },
      "balanceOf(address)": {
        "details": "See {IERC721-balanceOf}."
      },
      "getApproved(uint256)": {
        "details": "See {IERC721-getApproved}."
      },
      "isApprovedForAll(address,address)": {
        "details": "See {IERC721-isApprovedForAll}."
      },
      "name()": {
        "details": "See {IERC721Metadata-name}."
      },
      "owner()": {
        "details": "Returns the address of the current owner."
      },
      "ownerOf(uint256)": {
        "details": "See {IERC721-ownerOf}."
      },
      "renounceOwnership()": {
        "details": "Leaves the contract without owner. It will not be possible to call `onlyOwner` functions anymore. Can only be called by the current owner. NOTE: Renouncing ownership will leave the contract without an owner, thereby removing any functionality that is only available to the owner."
      },
      "safeTransferFrom(address,address,uint256)": {
        "details": "See {IERC721-safeTransferFrom}."
      },
      "safeTransferFrom(address,address,uint256,bytes)": {
        "details": "See {IERC721-safeTransferFrom}."
      },
      "setApprovalForAll(address,bool)": {
        "details": "See {IERC721-setApprovalForAll}."
      },
      "supportsInterface(bytes4)": {
        "details": "See {IERC165-supportsInterface}."
      },
      "symbol()": {
        "details": "See {IERC721Metadata-symbol}."
      },
      "tokenURI(uint256)": {
        "details": "See {IERC721Metadata-tokenURI}."
      },
      "transferFrom(address,address,uint256)": {
        "details": "See {IERC721-transferFrom}."
      },
      "transferOwnership(address)": {
        "details": "Transfers ownership of the contract to a new account (`newOwner`). Can only be called by the current owner."
      }
    },
    "version": 1
  },
  "userdoc": {
    "kind": "user",
    "methods": {},
    "version": 1
  }
}